{
  "_format": "hh-sol-artifact-1",
  "contractName": "DailySavingContract",
  "sourceName": "contracts/DailySavingsManager.sol",
  "abi": [
    {
      "inputs": [
        {
          "internalType": "address",
          "name": "_rewardToken",
          "type": "address"
        }
      ],
      "stateMutability": "nonpayable",
      "type": "constructor"
    },
    {
      "inputs": [
        {
          "internalType": "address",
          "name": "owner",
          "type": "address"
        }
      ],
      "name": "OwnableInvalidOwner",
      "type": "error"
    },
    {
      "inputs": [
        {
          "internalType": "address",
          "name": "account",
          "type": "address"
        }
      ],
      "name": "OwnableUnauthorizedAccount",
      "type": "error"
    },
    {
      "inputs": [],
      "name": "ReentrancyGuardReentrantCall",
      "type": "error"
    },
    {
      "anonymous": false,
      "inputs": [
        {
          "indexed": false,
          "internalType": "address",
          "name": "feeToken",
          "type": "address"
        },
        {
          "indexed": false,
          "internalType": "uint256",
          "name": "baseFee",
          "type": "uint256"
        },
        {
          "indexed": false,
          "internalType": "uint256",
          "name": "percentFee",
          "type": "uint256"
        }
      ],
      "name": "GasFeeConfigured",
      "type": "event"
    },
    {
      "anonymous": false,
      "inputs": [
        {
          "indexed": true,
          "internalType": "address",
          "name": "previousOwner",
          "type": "address"
        },
        {
          "indexed": true,
          "internalType": "address",
          "name": "newOwner",
          "type": "address"
        }
      ],
      "name": "OwnershipTransferred",
      "type": "event"
    },
    {
      "anonymous": false,
      "inputs": [
        {
          "indexed": true,
          "internalType": "bytes32",
          "name": "planId",
          "type": "bytes32"
        },
        {
          "indexed": true,
          "internalType": "address",
          "name": "user",
          "type": "address"
        },
        {
          "indexed": false,
          "internalType": "address",
          "name": "token",
          "type": "address"
        },
        {
          "indexed": false,
          "internalType": "uint256",
          "name": "amountPerInterval",
          "type": "uint256"
        },
        {
          "indexed": false,
          "internalType": "uint256",
          "name": "interval",
          "type": "uint256"
        }
      ],
      "name": "PlanCreated",
      "type": "event"
    },
    {
      "anonymous": false,
      "inputs": [
        {
          "indexed": true,
          "internalType": "bytes32",
          "name": "planId",
          "type": "bytes32"
        },
        {
          "indexed": false,
          "internalType": "uint256",
          "name": "amountSaved",
          "type": "uint256"
        },
        {
          "indexed": false,
          "internalType": "uint256",
          "name": "reward",
          "type": "uint256"
        },
        {
          "indexed": false,
          "internalType": "uint256",
          "name": "gasFee",
          "type": "uint256"
        }
      ],
      "name": "PlanExecuted",
      "type": "event"
    },
    {
      "anonymous": false,
      "inputs": [
        {
          "indexed": true,
          "internalType": "address",
          "name": "relayer",
          "type": "address"
        },
        {
          "indexed": false,
          "internalType": "uint256",
          "name": "amount",
          "type": "uint256"
        }
      ],
      "name": "RelayerRewardsCollected",
      "type": "event"
    },
    {
      "anonymous": false,
      "inputs": [
        {
          "indexed": false,
          "internalType": "address",
          "name": "relayer",
          "type": "address"
        },
        {
          "indexed": false,
          "internalType": "bool",
          "name": "active",
          "type": "bool"
        }
      ],
      "name": "RelayerSet",
      "type": "event"
    },
    {
      "anonymous": false,
      "inputs": [
        {
          "indexed": false,
          "internalType": "address",
          "name": "token",
          "type": "address"
        },
        {
          "indexed": false,
          "internalType": "uint256",
          "name": "yieldRate",
          "type": "uint256"
        }
      ],
      "name": "TokenConfigured",
      "type": "event"
    },
    {
      "anonymous": false,
      "inputs": [
        {
          "indexed": true,
          "internalType": "address",
          "name": "user",
          "type": "address"
        },
        {
          "indexed": false,
          "internalType": "uint256",
          "name": "amount",
          "type": "uint256"
        }
      ],
      "name": "YieldDistributed",
      "type": "event"
    },
    {
      "inputs": [],
      "name": "BASIS_POINTS",
      "outputs": [
        {
          "internalType": "uint256",
          "name": "",
          "type": "uint256"
        }
      ],
      "stateMutability": "view",
      "type": "function"
    },
    {
      "inputs": [],
      "name": "PRECISION",
      "outputs": [
        {
          "internalType": "uint256",
          "name": "",
          "type": "uint256"
        }
      ],
      "stateMutability": "view",
      "type": "function"
    },
    {
      "inputs": [],
      "name": "collectRelayerRewards",
      "outputs": [],
      "stateMutability": "nonpayable",
      "type": "function"
    },
    {
      "inputs": [
        {
          "internalType": "address",
          "name": "token",
          "type": "address"
        },
        {
          "internalType": "uint256",
          "name": "yieldRateBps",
          "type": "uint256"
        }
      ],
      "name": "configureToken",
      "outputs": [],
      "stateMutability": "nonpayable",
      "type": "function"
    },
    {
      "inputs": [
        {
          "internalType": "address",
          "name": "token",
          "type": "address"
        },
        {
          "internalType": "uint256",
          "name": "amount",
          "type": "uint256"
        },
        {
          "internalType": "uint256",
          "name": "intervalSeconds",
          "type": "uint256"
        },
        {
          "internalType": "uint256",
          "name": "deadline",
          "type": "uint256"
        },
        {
          "internalType": "uint8",
          "name": "v",
          "type": "uint8"
        },
        {
          "internalType": "bytes32",
          "name": "r",
          "type": "bytes32"
        },
        {
          "internalType": "bytes32",
          "name": "s",
          "type": "bytes32"
        }
      ],
      "name": "createPlanWithPermit",
      "outputs": [],
      "stateMutability": "nonpayable",
      "type": "function"
    },
    {
      "inputs": [
        {
          "internalType": "bytes32",
          "name": "planId",
          "type": "bytes32"
        }
      ],
      "name": "executePlan",
      "outputs": [],
      "stateMutability": "nonpayable",
      "type": "function"
    },
    {
      "inputs": [],
      "name": "gasFeeConfig",
      "outputs": [
        {
          "internalType": "address",
          "name": "feeToken",
          "type": "address"
        },
        {
          "internalType": "uint256",
          "name": "baseFee",
          "type": "uint256"
        },
        {
          "internalType": "uint256",
          "name": "percentFee",
          "type": "uint256"
        },
        {
          "internalType": "bool",
          "name": "active",
          "type": "bool"
        }
      ],
      "stateMutability": "view",
      "type": "function"
    },
    {
      "inputs": [],
      "name": "initializeAsMinter",
      "outputs": [],
      "stateMutability": "nonpayable",
      "type": "function"
    },
    {
      "inputs": [],
      "name": "isMinter",
      "outputs": [
        {
          "internalType": "bool",
          "name": "",
          "type": "bool"
        }
      ],
      "stateMutability": "view",
      "type": "function"
    },
    {
      "inputs": [],
      "name": "owner",
      "outputs": [
        {
          "internalType": "address",
          "name": "",
          "type": "address"
        }
      ],
      "stateMutability": "view",
      "type": "function"
    },
    {
      "inputs": [
        {
          "internalType": "bytes32",
          "name": "",
          "type": "bytes32"
        }
      ],
      "name": "plans",
      "outputs": [
        {
          "internalType": "address",
          "name": "user",
          "type": "address"
        },
        {
          "internalType": "address",
          "name": "token",
          "type": "address"
        },
        {
          "internalType": "uint256",
          "name": "amountPerInterval",
          "type": "uint256"
        },
        {
          "internalType": "uint256",
          "name": "interval",
          "type": "uint256"
        },
        {
          "internalType": "uint256",
          "name": "lastExecuted",
          "type": "uint256"
        },
        {
          "internalType": "bool",
          "name": "active",
          "type": "bool"
        }
      ],
      "stateMutability": "view",
      "type": "function"
    },
    {
      "inputs": [
        {
          "internalType": "address",
          "name": "",
          "type": "address"
        }
      ],
      "name": "relayerRewards",
      "outputs": [
        {
          "internalType": "uint256",
          "name": "",
          "type": "uint256"
        }
      ],
      "stateMutability": "view",
      "type": "function"
    },
    {
      "inputs": [
        {
          "internalType": "address",
          "name": "",
          "type": "address"
        }
      ],
      "name": "relayers",
      "outputs": [
        {
          "internalType": "bool",
          "name": "",
          "type": "bool"
        }
      ],
      "stateMutability": "view",
      "type": "function"
    },
    {
      "inputs": [],
      "name": "renounceOwnership",
      "outputs": [],
      "stateMutability": "nonpayable",
      "type": "function"
    },
    {
      "inputs": [],
      "name": "rewardToken",
      "outputs": [
        {
          "internalType": "contract MyToken",
          "name": "",
          "type": "address"
        }
      ],
      "stateMutability": "view",
      "type": "function"
    },
    {
      "inputs": [
        {
          "internalType": "address",
          "name": "feeToken",
          "type": "address"
        },
        {
          "internalType": "uint256",
          "name": "baseFee",
          "type": "uint256"
        },
        {
          "internalType": "uint256",
          "name": "percentFee",
          "type": "uint256"
        }
      ],
      "name": "setGasFeeConfig",
      "outputs": [],
      "stateMutability": "nonpayable",
      "type": "function"
    },
    {
      "inputs": [
        {
          "internalType": "address",
          "name": "relayer",
          "type": "address"
        },
        {
          "internalType": "bool",
          "name": "active",
          "type": "bool"
        }
      ],
      "name": "setRelayer",
      "outputs": [],
      "stateMutability": "nonpayable",
      "type": "function"
    },
    {
      "inputs": [
        {
          "internalType": "bool",
          "name": "active",
          "type": "bool"
        }
      ],
      "name": "toggleGasFeeCollection",
      "outputs": [],
      "stateMutability": "nonpayable",
      "type": "function"
    },
    {
      "inputs": [
        {
          "internalType": "address",
          "name": "",
          "type": "address"
        }
      ],
      "name": "tokenConfigs",
      "outputs": [
        {
          "internalType": "uint256",
          "name": "yieldRate",
          "type": "uint256"
        },
        {
          "internalType": "bool",
          "name": "allowed",
          "type": "bool"
        }
      ],
      "stateMutability": "view",
      "type": "function"
    },
    {
      "inputs": [
        {
          "internalType": "address",
          "name": "newOwner",
          "type": "address"
        }
      ],
      "name": "transferOwnership",
      "outputs": [],
      "stateMutability": "nonpayable",
      "type": "function"
    },
    {
      "inputs": [
        {
          "internalType": "address",
          "name": "",
          "type": "address"
        },
        {
          "internalType": "address",
          "name": "",
          "type": "address"
        }
      ],
      "name": "userBalances",
      "outputs": [
        {
          "internalType": "uint256",
          "name": "",
          "type": "uint256"
        }
      ],
      "stateMutability": "view",
      "type": "function"
    }
  ],
  "bytecode": "0x60a0604052600b805460ff1916905534801561001a57600080fd5b506040516114253803806114258339810160408190526100399161013f565b338061006057604051631e4fbdf760e01b8152600060048201526024015b60405180910390fd5b610069816100ef565b50600180556001600160a01b0381166100c45760405162461bcd60e51b815260206004820152601460248201527f496e76616c69642072657761726420746f6b656e0000000000000000000000006044820152606401610057565b6001600160a01b0316608052336000908152600560205260409020805460ff1916600117905561016f565b600080546001600160a01b038381166001600160a01b0319831681178455604051919092169283917f8be0079c531659141344cd1fd0a4f28419497f9722a3daafe3b4186f6b6457e09190a35050565b60006020828403121561015157600080fd5b81516001600160a01b038116811461016857600080fd5b9392505050565b60805161128d610198600039600081816103c4015281816105c20152610b57015261128d6000f3fe608060405234801561001057600080fd5b50600436106101375760003560e01c8063adb51980116100b8578063d55742cc1161007c578063d55742cc1461037d578063e1f1c4a714610390578063ecd8dc3a14610399578063f2fde38b146103ac578063f7c618c1146103bf578063ffb58809146103e657600080fd5b8063adb5198014610304578063ba368fe01461032f578063bd1fc8b214610337578063c8defa7d1461034a578063ce091b1b1461036a57600080fd5b80638c53dccf116100ff5780638c53dccf146102185780638da5cb5b1461022057806397bc068914610245578063aa4f265314610258578063aaf5eb68146102e757600080fd5b806312f75aab1461013c5780631b69dc5f1461018f57806350e59eb3146101ce5780635300f841146101eb578063715018a61461020e575b600080fd5b600754600854600954600a5461015e936001600160a01b031692919060ff1684565b604080516001600160a01b039095168552602085019390935291830152151560608201526080015b60405180910390f35b6101b961019d366004611039565b6004602052600090815260409020805460019091015460ff1682565b60408051928352901515602083015201610186565b600b546101db9060ff1681565b6040519015158152602001610186565b6101db6101f9366004611039565b60056020526000908152604090205460ff1681565b6102166103f9565b005b61021661040d565b6000546001600160a01b03165b6040516001600160a01b039091168152602001610186565b610216610253366004611069565b610537565b6102ad610266366004611086565b60026020819052600091825260409091208054600182015492820154600383015460048401546005909401546001600160a01b039384169590931693919290919060ff1686565b604080516001600160a01b0397881681529690951660208701529385019290925260608401526080830152151560a082015260c001610186565b6102f6670de0b6b3a764000081565b604051908152602001610186565b6102f661031236600461109f565b600360209081526000928352604080842090915290825290205481565b610216610552565b6102166103453660046110d2565b610635565b6102f6610358366004611039565b60066020526000908152604090205481565b6102166103783660046110fc565b6106fb565b61021661038b366004611086565b61082e565b6102f661271081565b6102166103a736600461112f565b610c53565b6102166103ba366004611039565b610cb7565b61022d7f000000000000000000000000000000000000000000000000000000000000000081565b6102166103f4366004611166565b610cf2565b610401610f76565b61040b6000610fa3565b565b610415610ff3565b336000908152600660205260409020548061046f5760405162461bcd60e51b8152602060048201526015602482015274139bc81c995dd85c991cc81d1bc818dbdb1b1958dd605a1b60448201526064015b60405180910390fd5b3360008181526006602052604080822091909155600754905163a9059cbb60e01b81526004810192909252602482018390526001600160a01b03169063a9059cbb906044016020604051808303816000875af11580156104d3573d6000803e3d6000fd5b505050506040513d601f19601f820116820180604052508101906104f791906111d2565b5060405181815233907fcc7169ee4a8511c13760d433e2892bc66f58cecee155f1838ef6b61858c005629060200160405180910390a25061040b60018055565b61053f610f76565b600a805460ff1916911515919091179055565b61055a610f76565b600b5460ff16156105ad5760405162461bcd60e51b815260206004820152601d60248201527f416c726561647920696e697469616c697a6564206173206d696e7465720000006044820152606401610466565b604051637e51dad560e11b81523060048201527f00000000000000000000000000000000000000000000000000000000000000006001600160a01b03169063fca3b5aa90602401600060405180830381600087803b15801561060e57600080fd5b505af1158015610622573d6000803e3d6000fd5b5050600b805460ff191660011790555050565b61063d610f76565b61271081111561067a5760405162461bcd60e51b81526020600482015260086024820152670a8dede40d0d2ced60c31b6044820152606401610466565b604080518082018252828152600160208083018281526001600160a01b03871660008181526004845286902094518555905193909201805460ff19169315159390931790925582519081529081018390527fa7d91aa9e73ace801bd9e27923c9db51206f2ca58a442f10d887b6f3d8f9869191015b60405180910390a15050565b610703610f76565b6001600160a01b03831661074d5760405162461bcd60e51b815260206004820152601160248201527024b73b30b634b2103332b2903a37b5b2b760791b6044820152606401610466565b6127108111156107965760405162461bcd60e51b81526020600482015260146024820152730a0cae4c6cadce840cccaca40e8dede40d0d2ced60631b6044820152606401610466565b604080516080810182526001600160a01b038516808252602080830186905282840185905260016060938401819052600780546001600160a01b0319168417905560088790556009869055600a805460ff19169091179055835191825281018590529182018390527f83ab22392d7ccbf8a19a2efcf7d0646364a3e24e70275b913889680ff356339f910160405180910390a1505050565b3360009081526005602052604090205460ff1661087d5760405162461bcd60e51b815260206004820152600d60248201526c2737ba1030903932b630bcb2b960991b6044820152606401610466565b610885610ff3565b6000818152600260205260409020600581015460ff166108d75760405162461bcd60e51b815260206004820152600d60248201526c506c616e20696e61637469766560981b6044820152606401610466565b806003015481600401546108eb9190611205565b4210156109255760405162461bcd60e51b81526020600482015260086024820152672a37b79039b7b7b760c11b6044820152606401610466565b6001808201546001600160a01b03166000908152600460209081526040918290208251808401909352805483529092015460ff1615159181018290529061099f5760405162461bcd60e51b815260206004820152600e60248201526d151bdad95b88191a5cd8589b195960921b6044820152606401610466565b6001820154825460028401546040516323b872dd60e01b81526001600160a01b03928316600482015230602482015260448101919091529116906323b872dd906064016020604051808303816000875af1158015610a01573d6000803e3d6000fd5b505050506040513d601f19601f82011682018060405250810190610a2591906111d2565b506000610a386127106301e1338061121e565b600384015483516002860154610a4e919061121e565b610a58919061121e565b610a629190611235565b600a5490915060009060ff1615610b2f575060085460095415801590610a9a575060018401546007546001600160a01b039081169116145b15610ad35760006127106007600201548660020154610ab9919061121e565b610ac39190611235565b9050610acf8183611205565b9150505b600081118015610ae7575083600201548111155b8015610b05575060018401546007546001600160a01b039081169116145b15610b2f573360009081526006602052604081208054839290610b29908490611205565b90915550505b83546040516340c10f1960e01b81526001600160a01b039182166004820152602481018490527f0000000000000000000000000000000000000000000000000000000000000000909116906340c10f1990604401600060405180830381600087803b158015610b9d57600080fd5b505af1158015610bb1573d6000803e3d6000fd5b5050426004870155505060028401546040805191825260208201849052810182905285907f58ec66b1c9ca5cce26751cd0b7ff8b84645928bbcbd2f1c0963e8275239182f99060600160405180910390a283546040518381526001600160a01b03909116907f9d315883dbfe38532083c1e42c0d10fbf89ad1cabaa0c269f78b3beb892c101d9060200160405180910390a250505050610c5060018055565b50565b610c5b610f76565b6001600160a01b038216600081815260056020908152604091829020805460ff19168515159081179091558251938452908301527fee42947bc760229eeff964017ac68eddb00ba98b0defcd90a1bc85a5afceb05791016106ef565b610cbf610f76565b6001600160a01b038116610ce957604051631e4fbdf760e01b815260006004820152602401610466565b610c5081610fa3565b6001600160a01b03871660009081526004602052604090206001015460ff16610d535760405162461bcd60e51b8152602060048201526013602482015272151bdad95b881b9bdd081cdd5c1c1bdc9d1959606a1b6044820152606401610466565b600086118015610d635750600085115b610da05760405162461bcd60e51b815260206004820152600e60248201526d496e76616c696420706172616d7360901b6044820152606401610466565b60405163d505accf60e01b8152336004820152306024820152604481018790526064810185905260ff8416608482015260a4810183905260c481018290526001600160a01b0388169063d505accf9060e401600060405180830381600087803b158015610e0c57600080fd5b505af1158015610e20573d6000803e3d6000fd5b50506040516bffffffffffffffffffffffff1933606090811b821660208401528b901b16603482015242604882015260009250606801905060408051601f19818403018152828252805160209182012060c084018352338085526001600160a01b038d81168685019081528686018e8152606088018e81524260808a01908152600160a08b01818152600089815260029a8b90528b90209b518c549088166001600160a01b0319918216178d559551918c0180549290971691909516179094559051958801959095559351600387015551600486015591516005909401805494151560ff199095169490941790935590519192509082907f5c843e870343de1dab31ff236b9e4e5d6847072ee4c0bcb025f19aa3385d799a90610f64908c908c908c906001600160a01b039390931683526020830191909152604082015260600190565b60405180910390a35050505050505050565b6000546001600160a01b0316331461040b5760405163118cdaa760e01b8152336004820152602401610466565b600080546001600160a01b038381166001600160a01b0319831681178455604051919092169283917f8be0079c531659141344cd1fd0a4f28419497f9722a3daafe3b4186f6b6457e09190a35050565b60026001540361101657604051633ee5aeb560e01b815260040160405180910390fd5b6002600155565b80356001600160a01b038116811461103457600080fd5b919050565b60006020828403121561104b57600080fd5b6110548261101d565b9392505050565b8015158114610c5057600080fd5b60006020828403121561107b57600080fd5b81356110548161105b565b60006020828403121561109857600080fd5b5035919050565b600080604083850312156110b257600080fd5b6110bb8361101d565b91506110c96020840161101d565b90509250929050565b600080604083850312156110e557600080fd5b6110ee8361101d565b946020939093013593505050565b60008060006060848603121561111157600080fd5b61111a8461101d565b95602085013595506040909401359392505050565b6000806040838503121561114257600080fd5b61114b8361101d565b9150602083013561115b8161105b565b809150509250929050565b600080600080600080600060e0888a03121561118157600080fd5b61118a8861101d565b9650602088013595506040880135945060608801359350608088013560ff811681146111b557600080fd5b9699959850939692959460a0840135945060c09093013592915050565b6000602082840312156111e457600080fd5b81516110548161105b565b634e487b7160e01b600052601160045260246000fd5b80820180821115611218576112186111ef565b92915050565b8082028115828204841417611218576112186111ef565b60008261125257634e487b7160e01b600052601260045260246000fd5b50049056fea26469706673582212202701b059d21b0a94ec3c36b7127124c148553fff7c74ee5f9f795ea8bd76ed9c64736f6c634300081a0033",
  "linkReferences": {},
  "deployedLinkReferences": {}
}