{
  "_format": "hh-sol-artifact-1",
  "contractName": "MyToken",
  "sourceName": "contracts/MyToken.sol",
  "abi": [
    {
      "inputs": [
        {
          "internalType": "uint256",
          "name": "initialSupply",
          "type": "uint256"
        },
        {
          "internalType": "uint256",
          "name": "_maxSupply",
          "type": "uint256"
        }
      ],
      "stateMutability": "nonpayable",
      "type": "constructor"
    },
    {
      "inputs": [],
      "name": "ECDSAInvalidSignature",
      "type": "error"
    },
    {
      "inputs": [
        {
          "internalType": "uint256",
          "name": "length",
          "type": "uint256"
        }
      ],
      "name": "ECDSAInvalidSignatureLength",
      "type": "error"
    },
    {
      "inputs": [
        {
          "internalType": "bytes32",
          "name": "s",
          "type": "bytes32"
        }
      ],
      "name": "ECDSAInvalidSignatureS",
      "type": "error"
    },
    {
      "inputs": [
        {
          "internalType": "address",
          "name": "spender",
          "type": "address"
        },
        {
          "internalType": "uint256",
          "name": "allowance",
          "type": "uint256"
        },
        {
          "internalType": "uint256",
          "name": "needed",
          "type": "uint256"
        }
      ],
      "name": "ERC20InsufficientAllowance",
      "type": "error"
    },
    {
      "inputs": [
        {
          "internalType": "address",
          "name": "sender",
          "type": "address"
        },
        {
          "internalType": "uint256",
          "name": "balance",
          "type": "uint256"
        },
        {
          "internalType": "uint256",
          "name": "needed",
          "type": "uint256"
        }
      ],
      "name": "ERC20InsufficientBalance",
      "type": "error"
    },
    {
      "inputs": [
        {
          "internalType": "address",
          "name": "approver",
          "type": "address"
        }
      ],
      "name": "ERC20InvalidApprover",
      "type": "error"
    },
    {
      "inputs": [
        {
          "internalType": "address",
          "name": "receiver",
          "type": "address"
        }
      ],
      "name": "ERC20InvalidReceiver",
      "type": "error"
    },
    {
      "inputs": [
        {
          "internalType": "address",
          "name": "sender",
          "type": "address"
        }
      ],
      "name": "ERC20InvalidSender",
      "type": "error"
    },
    {
      "inputs": [
        {
          "internalType": "address",
          "name": "spender",
          "type": "address"
        }
      ],
      "name": "ERC20InvalidSpender",
      "type": "error"
    },
    {
      "inputs": [
        {
          "internalType": "uint256",
          "name": "deadline",
          "type": "uint256"
        }
      ],
      "name": "ERC2612ExpiredSignature",
      "type": "error"
    },
    {
      "inputs": [
        {
          "internalType": "address",
          "name": "signer",
          "type": "address"
        },
        {
          "internalType": "address",
          "name": "owner",
          "type": "address"
        }
      ],
      "name": "ERC2612InvalidSigner",
      "type": "error"
    },
    {
      "inputs": [
        {
          "internalType": "address",
          "name": "account",
          "type": "address"
        },
        {
          "internalType": "uint256",
          "name": "currentNonce",
          "type": "uint256"
        }
      ],
      "name": "InvalidAccountNonce",
      "type": "error"
    },
    {
      "inputs": [],
      "name": "InvalidShortString",
      "type": "error"
    },
    {
      "inputs": [
        {
          "internalType": "address",
          "name": "owner",
          "type": "address"
        }
      ],
      "name": "OwnableInvalidOwner",
      "type": "error"
    },
    {
      "inputs": [
        {
          "internalType": "address",
          "name": "account",
          "type": "address"
        }
      ],
      "name": "OwnableUnauthorizedAccount",
      "type": "error"
    },
    {
      "inputs": [
        {
          "internalType": "string",
          "name": "str",
          "type": "string"
        }
      ],
      "name": "StringTooLong",
      "type": "error"
    },
    {
      "anonymous": false,
      "inputs": [
        {
          "indexed": true,
          "internalType": "address",
          "name": "owner",
          "type": "address"
        },
        {
          "indexed": true,
          "internalType": "address",
          "name": "spender",
          "type": "address"
        },
        {
          "indexed": false,
          "internalType": "uint256",
          "name": "value",
          "type": "uint256"
        }
      ],
      "name": "Approval",
      "type": "event"
    },
    {
      "anonymous": false,
      "inputs": [],
      "name": "EIP712DomainChanged",
      "type": "event"
    },
    {
      "anonymous": false,
      "inputs": [
        {
          "indexed": true,
          "internalType": "address",
          "name": "newMinter",
          "type": "address"
        }
      ],
      "name": "MinterUpdated",
      "type": "event"
    },
    {
      "anonymous": false,
      "inputs": [
        {
          "indexed": true,
          "internalType": "address",
          "name": "previousOwner",
          "type": "address"
        },
        {
          "indexed": true,
          "internalType": "address",
          "name": "newOwner",
          "type": "address"
        }
      ],
      "name": "OwnershipTransferred",
      "type": "event"
    },
    {
      "anonymous": false,
      "inputs": [
        {
          "indexed": false,
          "internalType": "address",
          "name": "token",
          "type": "address"
        },
        {
          "indexed": false,
          "internalType": "address",
          "name": "recipient",
          "type": "address"
        },
        {
          "indexed": false,
          "internalType": "uint256",
          "name": "amount",
          "type": "uint256"
        }
      ],
      "name": "TokensRecovered",
      "type": "event"
    },
    {
      "anonymous": false,
      "inputs": [
        {
          "indexed": true,
          "internalType": "address",
          "name": "from",
          "type": "address"
        },
        {
          "indexed": true,
          "internalType": "address",
          "name": "to",
          "type": "address"
        },
        {
          "indexed": false,
          "internalType": "uint256",
          "name": "value",
          "type": "uint256"
        }
      ],
      "name": "Transfer",
      "type": "event"
    },
    {
      "inputs": [],
      "name": "DOMAIN_SEPARATOR",
      "outputs": [
        {
          "internalType": "bytes32",
          "name": "",
          "type": "bytes32"
        }
      ],
      "stateMutability": "view",
      "type": "function"
    },
    {
      "inputs": [
        {
          "internalType": "address",
          "name": "owner",
          "type": "address"
        },
        {
          "internalType": "address",
          "name": "spender",
          "type": "address"
        }
      ],
      "name": "allowance",
      "outputs": [
        {
          "internalType": "uint256",
          "name": "",
          "type": "uint256"
        }
      ],
      "stateMutability": "view",
      "type": "function"
    },
    {
      "inputs": [
        {
          "internalType": "address",
          "name": "spender",
          "type": "address"
        },
        {
          "internalType": "uint256",
          "name": "value",
          "type": "uint256"
        }
      ],
      "name": "approve",
      "outputs": [
        {
          "internalType": "bool",
          "name": "",
          "type": "bool"
        }
      ],
      "stateMutability": "nonpayable",
      "type": "function"
    },
    {
      "inputs": [
        {
          "internalType": "address",
          "name": "account",
          "type": "address"
        }
      ],
      "name": "balanceOf",
      "outputs": [
        {
          "internalType": "uint256",
          "name": "",
          "type": "uint256"
        }
      ],
      "stateMutability": "view",
      "type": "function"
    },
    {
      "inputs": [
        {
          "internalType": "uint256",
          "name": "value",
          "type": "uint256"
        }
      ],
      "name": "burn",
      "outputs": [],
      "stateMutability": "nonpayable",
      "type": "function"
    },
    {
      "inputs": [
        {
          "internalType": "address",
          "name": "account",
          "type": "address"
        },
        {
          "internalType": "uint256",
          "name": "value",
          "type": "uint256"
        }
      ],
      "name": "burnFrom",
      "outputs": [],
      "stateMutability": "nonpayable",
      "type": "function"
    },
    {
      "inputs": [],
      "name": "decimals",
      "outputs": [
        {
          "internalType": "uint8",
          "name": "",
          "type": "uint8"
        }
      ],
      "stateMutability": "view",
      "type": "function"
    },
    {
      "inputs": [],
      "name": "eip712Domain",
      "outputs": [
        {
          "internalType": "bytes1",
          "name": "fields",
          "type": "bytes1"
        },
        {
          "internalType": "string",
          "name": "name",
          "type": "string"
        },
        {
          "internalType": "string",
          "name": "version",
          "type": "string"
        },
        {
          "internalType": "uint256",
          "name": "chainId",
          "type": "uint256"
        },
        {
          "internalType": "address",
          "name": "verifyingContract",
          "type": "address"
        },
        {
          "internalType": "bytes32",
          "name": "salt",
          "type": "bytes32"
        },
        {
          "internalType": "uint256[]",
          "name": "extensions",
          "type": "uint256[]"
        }
      ],
      "stateMutability": "view",
      "type": "function"
    },
    {
      "inputs": [],
      "name": "maxSupply",
      "outputs": [
        {
          "internalType": "uint256",
          "name": "",
          "type": "uint256"
        }
      ],
      "stateMutability": "view",
      "type": "function"
    },
    {
      "inputs": [
        {
          "internalType": "address",
          "name": "to",
          "type": "address"
        },
        {
          "internalType": "uint256",
          "name": "amount",
          "type": "uint256"
        }
      ],
      "name": "mint",
      "outputs": [],
      "stateMutability": "nonpayable",
      "type": "function"
    },
    {
      "inputs": [],
      "name": "minter",
      "outputs": [
        {
          "internalType": "address",
          "name": "",
          "type": "address"
        }
      ],
      "stateMutability": "view",
      "type": "function"
    },
    {
      "inputs": [],
      "name": "name",
      "outputs": [
        {
          "internalType": "string",
          "name": "",
          "type": "string"
        }
      ],
      "stateMutability": "view",
      "type": "function"
    },
    {
      "inputs": [
        {
          "internalType": "address",
          "name": "owner",
          "type": "address"
        }
      ],
      "name": "nonces",
      "outputs": [
        {
          "internalType": "uint256",
          "name": "",
          "type": "uint256"
        }
      ],
      "stateMutability": "view",
      "type": "function"
    },
    {
      "inputs": [],
      "name": "owner",
      "outputs": [
        {
          "internalType": "address",
          "name": "",
          "type": "address"
        }
      ],
      "stateMutability": "view",
      "type": "function"
    },
    {
      "inputs": [
        {
          "internalType": "address",
          "name": "owner",
          "type": "address"
        },
        {
          "internalType": "address",
          "name": "spender",
          "type": "address"
        },
        {
          "internalType": "uint256",
          "name": "value",
          "type": "uint256"
        },
        {
          "internalType": "uint256",
          "name": "deadline",
          "type": "uint256"
        },
        {
          "internalType": "uint8",
          "name": "v",
          "type": "uint8"
        },
        {
          "internalType": "bytes32",
          "name": "r",
          "type": "bytes32"
        },
        {
          "internalType": "bytes32",
          "name": "s",
          "type": "bytes32"
        }
      ],
      "name": "permit",
      "outputs": [],
      "stateMutability": "nonpayable",
      "type": "function"
    },
    {
      "inputs": [
        {
          "internalType": "address",
          "name": "tokenAddress",
          "type": "address"
        },
        {
          "internalType": "address",
          "name": "recipient",
          "type": "address"
        },
        {
          "internalType": "uint256",
          "name": "amount",
          "type": "uint256"
        }
      ],
      "name": "recoverERC20",
      "outputs": [],
      "stateMutability": "nonpayable",
      "type": "function"
    },
    {
      "inputs": [],
      "name": "renounceOwnership",
      "outputs": [],
      "stateMutability": "nonpayable",
      "type": "function"
    },
    {
      "inputs": [
        {
          "internalType": "address",
          "name": "_minter",
          "type": "address"
        }
      ],
      "name": "setMinter",
      "outputs": [],
      "stateMutability": "nonpayable",
      "type": "function"
    },
    {
      "inputs": [],
      "name": "symbol",
      "outputs": [
        {
          "internalType": "string",
          "name": "",
          "type": "string"
        }
      ],
      "stateMutability": "view",
      "type": "function"
    },
    {
      "inputs": [],
      "name": "totalSupply",
      "outputs": [
        {
          "internalType": "uint256",
          "name": "",
          "type": "uint256"
        }
      ],
      "stateMutability": "view",
      "type": "function"
    },
    {
      "inputs": [
        {
          "internalType": "address",
          "name": "to",
          "type": "address"
        },
        {
          "internalType": "uint256",
          "name": "value",
          "type": "uint256"
        }
      ],
      "name": "transfer",
      "outputs": [
        {
          "internalType": "bool",
          "name": "",
          "type": "bool"
        }
      ],
      "stateMutability": "nonpayable",
      "type": "function"
    },
    {
      "inputs": [
        {
          "internalType": "address",
          "name": "from",
          "type": "address"
        },
        {
          "internalType": "address",
          "name": "to",
          "type": "address"
        },
        {
          "internalType": "uint256",
          "name": "value",
          "type": "uint256"
        }
      ],
      "name": "transferFrom",
      "outputs": [
        {
          "internalType": "bool",
          "name": "",
          "type": "bool"
        }
      ],
      "stateMutability": "nonpayable",
      "type": "function"
    },
    {
      "inputs": [
        {
          "internalType": "address",
          "name": "newOwner",
          "type": "address"
        }
      ],
      "name": "transferOwnership",
      "outputs": [],
      "stateMutability": "nonpayable",
      "type": "function"
    }
  ],
  "bytecode": "0x61018060405234801561001157600080fd5b50604051611bf9380380611bf983398101604081905261003091610460565b33604051806040016040528060128152602001712d34b931bab4ba2932bbb0b9322a37b5b2b760711b81525080604051806040016040528060018152602001603160f81b815250604051806040016040528060128152602001712d34b931bab4ba2932bbb0b9322a37b5b2b760711b8152506040518060400160405280600381526020016216949560ea1b81525081600390816100cd9190610523565b5060046100da8282610523565b506100ea91508390506005610239565b610120526100f9816006610239565b61014052815160208084019190912060e052815190820120610100524660a05261018660e05161010051604080517f8b73c3c69bb8fe3d512ecc4cf759cc79239f7b179b0ffacaa9a75d522b39400f60208201529081019290925260608201524660808201523060a082015260009060c00160405160208183030381529060405280519060200120905090565b60805250503060c052506001600160a01b0381166101bf57604051631e4fbdf760e01b8152600060048201526024015b60405180910390fd5b6101c88161026c565b508015806101d65750808211155b6102225760405162461bcd60e51b815260206004820152601e60248201527f496e697469616c20737570706c792065786365656473206d6178696d756d000060448201526064016101b6565b61016081905261023233836102be565b5050610674565b60006020835110156102555761024e836102f8565b9050610266565b816102608482610523565b5060ff90505b92915050565b600880546001600160a01b038381166001600160a01b0319831681179093556040519116919082907f8be0079c531659141344cd1fd0a4f28419497f9722a3daafe3b4186f6b6457e090600090a35050565b6001600160a01b0382166102e85760405163ec442f0560e01b8152600060048201526024016101b6565b6102f460008383610336565b5050565b600080829050601f81511115610323578260405163305a27a960e01b81526004016101b691906105e1565b805161032e8261062f565b179392505050565b6001600160a01b0383166103615780600260008282546103569190610653565b909155506103d39050565b6001600160a01b038316600090815260208190526040902054818110156103b45760405163391434e360e21b81526001600160a01b038516600482015260248101829052604481018390526064016101b6565b6001600160a01b03841660009081526020819052604090209082900390555b6001600160a01b0382166103ef5760028054829003905561040e565b6001600160a01b03821660009081526020819052604090208054820190555b816001600160a01b0316836001600160a01b03167fddf252ad1be2c89b69c2b068fc378daa952ba7f163c4a11628f55a4df523b3ef8360405161045391815260200190565b60405180910390a3505050565b6000806040838503121561047357600080fd5b505080516020909101519092909150565b634e487b7160e01b600052604160045260246000fd5b600181811c908216806104ae57607f821691505b6020821081036104ce57634e487b7160e01b600052602260045260246000fd5b50919050565b601f82111561051e57806000526020600020601f840160051c810160208510156104fb5750805b601f840160051c820191505b8181101561051b5760008155600101610507565b50505b505050565b81516001600160401b0381111561053c5761053c610484565b6105508161054a845461049a565b846104d4565b6020601f821160018114610584576000831561056c5750848201515b600019600385901b1c1916600184901b17845561051b565b600084815260208120601f198516915b828110156105b45787850151825560209485019460019092019101610594565b50848210156105d25786840151600019600387901b60f8161c191681555b50505050600190811b01905550565b602081526000825180602084015260005b8181101561060f57602081860181015160408684010152016105f2565b506000604082850101526040601f19601f83011684010191505092915050565b805160208083015191908110156104ce5760001960209190910360031b1b16919050565b8082018082111561026657634e487b7160e01b600052601160045260246000fd5b60805160a05160c05160e051610100516101205161014051610160516115126106e7600039600081816102eb01528181610617015261063d01526000610cda01526000610cad01526000610b9701526000610b6f01526000610aca01526000610af401526000610b1e01526115126000f3fe608060405234801561001057600080fd5b506004361061014d5760003560e01c8063715018a6116100c3578063a9059cbb1161007c578063a9059cbb146102c0578063d505accf146102d3578063d5abeb01146102e6578063dd62ed3e1461030d578063f2fde38b14610346578063fca3b5aa1461035957600080fd5b8063715018a61461025e57806379cc6790146102665780637ecebe001461027957806384b0196e1461028c5780638da5cb5b146102a757806395d89b41146102b857600080fd5b806323b872dd1161011557806323b872dd146101e5578063313ce567146101f85780633644e5151461020757806340c10f191461020f57806342966c681461022257806370a082311461023557600080fd5b806306fdde03146101525780630754617214610170578063095ea7b31461019b5780631171bda9146101be57806318160ddd146101d3575b600080fd5b61015a61036c565b604051610167919061123a565b60405180910390f35b600954610183906001600160a01b031681565b6040516001600160a01b039091168152602001610167565b6101ae6101a9366004611270565b6103fe565b6040519015158152602001610167565b6101d16101cc36600461129a565b610418565b005b6002545b604051908152602001610167565b6101ae6101f336600461129a565b610588565b60405160128152602001610167565b6101d76105ac565b6101d161021d366004611270565b6105bb565b6101d16102303660046112d7565b6106cc565b6101d76102433660046112f0565b6001600160a01b031660009081526020819052604090205490565b6101d16106d9565b6101d1610274366004611270565b6106ed565b6101d76102873660046112f0565b610702565b610294610720565b604051610167979695949392919061130b565b6008546001600160a01b0316610183565b61015a610766565b6101ae6102ce366004611270565b610775565b6101d16102e13660046113a3565b610783565b6101d77f000000000000000000000000000000000000000000000000000000000000000081565b6101d761031b366004611416565b6001600160a01b03918216600090815260016020908152604080832093909416825291909152205490565b6101d16103543660046112f0565b6108bd565b6101d16103673660046112f0565b6108f8565b60606003805461037b90611449565b80601f01602080910402602001604051908101604052809291908181526020018280546103a790611449565b80156103f45780601f106103c9576101008083540402835291602001916103f4565b820191906000526020600020905b8154815290600101906020018083116103d757829003601f168201915b5050505050905090565b60003361040c8185856109a0565b60019150505b92915050565b6104206109b2565b306001600160a01b0384160361047d5760405162461bcd60e51b815260206004820152601c60248201527f43616e6e6f74207265636f766572206e617469766520746f6b656e730000000060448201526064015b60405180910390fd5b60405163a9059cbb60e01b81526001600160a01b0383811660048301526024820183905284919082169063a9059cbb906044016020604051808303816000875af11580156104cf573d6000803e3d6000fd5b505050506040513d601f19601f820116820180604052508101906104f39190611483565b6105375760405162461bcd60e51b8152602060048201526015602482015274151bdad95b881c9958dbdd995c9e4819985a5b1959605a1b6044820152606401610474565b604080516001600160a01b038087168252851660208201529081018390527f401f439d865a766757ec78675925bd67198d5e78805aa41691b34b5d6a6cbbe69060600160405180910390a150505050565b6000336105968582856109df565b6105a1858585610a5e565b506001949350505050565b60006105b6610abd565b905090565b6009546001600160a01b031633146106155760405162461bcd60e51b815260206004820152601b60248201527f4f6e6c79206d696e7465722063616e206d696e7420746f6b656e7300000000006044820152606401610474565b7f0000000000000000000000000000000000000000000000000000000000000000156106be577f00000000000000000000000000000000000000000000000000000000000000008161066660025490565b61067091906114a5565b11156106be5760405162461bcd60e51b815260206004820181905260248201527f4d696e7420776f756c6420657863656564206d6178696d756d20737570706c796044820152606401610474565b6106c88282610be8565b5050565b6106d63382610c1e565b50565b6106e16109b2565b6106eb6000610c54565b565b6106f88233836109df565b6106c88282610c1e565b6001600160a01b038116600090815260076020526040812054610412565b600060608060008060006060610734610ca6565b61073c610cd3565b60408051600080825260208201909252600f60f81b9b939a50919850469750309650945092509050565b60606004805461037b90611449565b60003361040c818585610a5e565b834211156107a75760405163313c898160e11b815260048101859052602401610474565b60007f6e71edae12b1b97f4d1f60370fef10105fa2faae0126114a169c64845d6126c98888886107f48c6001600160a01b0316600090815260076020526040902080546001810190915590565b6040805160208101969096526001600160a01b0394851690860152929091166060840152608083015260a082015260c0810186905260e001604051602081830303815290604052805190602001209050600061084f82610d00565b9050600061085f82878787610d2d565b9050896001600160a01b0316816001600160a01b0316146108a6576040516325c0072360e11b81526001600160a01b0380831660048301528b166024820152604401610474565b6108b18a8a8a6109a0565b50505050505050505050565b6108c56109b2565b6001600160a01b0381166108ef57604051631e4fbdf760e01b815260006004820152602401610474565b6106d681610c54565b6109006109b2565b6001600160a01b0381166109565760405162461bcd60e51b815260206004820152601d60248201527f4d696e7465722063616e6e6f74206265207a65726f20616464726573730000006044820152606401610474565b600980546001600160a01b0319166001600160a01b0383169081179091556040517fad0f299ec81a386c98df0ac27dae11dd020ed1b56963c53a7292e7a3a314539a90600090a250565b6109ad8383836001610d5b565b505050565b6008546001600160a01b031633146106eb5760405163118cdaa760e01b8152336004820152602401610474565b6001600160a01b03838116600090815260016020908152604080832093861683529290522054600019811015610a585781811015610a4957604051637dc7a0d960e11b81526001600160a01b03841660048201526024810182905260448101839052606401610474565b610a5884848484036000610d5b565b50505050565b6001600160a01b038316610a8857604051634b637e8f60e11b815260006004820152602401610474565b6001600160a01b038216610ab25760405163ec442f0560e01b815260006004820152602401610474565b6109ad838383610e30565b6000306001600160a01b037f000000000000000000000000000000000000000000000000000000000000000016148015610b1657507f000000000000000000000000000000000000000000000000000000000000000046145b15610b4057507f000000000000000000000000000000000000000000000000000000000000000090565b6105b6604080517f8b73c3c69bb8fe3d512ecc4cf759cc79239f7b179b0ffacaa9a75d522b39400f60208201527f0000000000000000000000000000000000000000000000000000000000000000918101919091527f000000000000000000000000000000000000000000000000000000000000000060608201524660808201523060a082015260009060c00160405160208183030381529060405280519060200120905090565b6001600160a01b038216610c125760405163ec442f0560e01b815260006004820152602401610474565b6106c860008383610e30565b6001600160a01b038216610c4857604051634b637e8f60e11b815260006004820152602401610474565b6106c882600083610e30565b600880546001600160a01b038381166001600160a01b0319831681179093556040519116919082907f8be0079c531659141344cd1fd0a4f28419497f9722a3daafe3b4186f6b6457e090600090a35050565b60606105b67f00000000000000000000000000000000000000000000000000000000000000006005610f5a565b60606105b67f00000000000000000000000000000000000000000000000000000000000000006006610f5a565b6000610412610d0d610abd565b8360405161190160f01b8152600281019290925260228201526042902090565b600080600080610d3f88888888611005565b925092509250610d4f82826110d4565b50909695505050505050565b6001600160a01b038416610d855760405163e602df0560e01b815260006004820152602401610474565b6001600160a01b038316610daf57604051634a1406b160e11b815260006004820152602401610474565b6001600160a01b0380851660009081526001602090815260408083209387168352929052208290558015610a5857826001600160a01b0316846001600160a01b03167f8c5be1e5ebec7d5bd14f71427d1e84f3dd0314c0f7b2291e5b200ac8c7c3b92584604051610e2291815260200190565b60405180910390a350505050565b6001600160a01b038316610e5b578060026000828254610e5091906114a5565b90915550610ecd9050565b6001600160a01b03831660009081526020819052604090205481811015610eae5760405163391434e360e21b81526001600160a01b03851660048201526024810182905260448101839052606401610474565b6001600160a01b03841660009081526020819052604090209082900390555b6001600160a01b038216610ee957600280548290039055610f08565b6001600160a01b03821660009081526020819052604090208054820190555b816001600160a01b0316836001600160a01b03167fddf252ad1be2c89b69c2b068fc378daa952ba7f163c4a11628f55a4df523b3ef83604051610f4d91815260200190565b60405180910390a3505050565b606060ff8314610f7457610f6d8361118d565b9050610412565b818054610f8090611449565b80601f0160208091040260200160405190810160405280929190818152602001828054610fac90611449565b8015610ff95780601f10610fce57610100808354040283529160200191610ff9565b820191906000526020600020905b815481529060010190602001808311610fdc57829003601f168201915b50505050509050610412565b600080807f7fffffffffffffffffffffffffffffff5d576e7357a4501ddfe92f46681b20a084111561104057506000915060039050826110ca565b604080516000808252602082018084528a905260ff891692820192909252606081018790526080810186905260019060a0016020604051602081039080840390855afa158015611094573d6000803e3d6000fd5b5050604051601f1901519150506001600160a01b0381166110c0575060009250600191508290506110ca565b9250600091508190505b9450945094915050565b60008260038111156110e8576110e86114c6565b036110f1575050565b6001826003811115611105576111056114c6565b036111235760405163f645eedf60e01b815260040160405180910390fd5b6002826003811115611137576111376114c6565b036111585760405163fce698f760e01b815260048101829052602401610474565b600382600381111561116c5761116c6114c6565b036106c8576040516335e2f38360e21b815260048101829052602401610474565b6060600061119a836111cc565b604080516020808252818301909252919250600091906020820181803683375050509182525060208101929092525090565b600060ff8216601f81111561041257604051632cd44ac360e21b815260040160405180910390fd5b6000815180845260005b8181101561121a576020818501810151868301820152016111fe565b506000602082860101526020601f19601f83011685010191505092915050565b60208152600061124d60208301846111f4565b9392505050565b80356001600160a01b038116811461126b57600080fd5b919050565b6000806040838503121561128357600080fd5b61128c83611254565b946020939093013593505050565b6000806000606084860312156112af57600080fd5b6112b884611254565b92506112c660208501611254565b929592945050506040919091013590565b6000602082840312156112e957600080fd5b5035919050565b60006020828403121561130257600080fd5b61124d82611254565b60ff60f81b8816815260e06020820152600061132a60e08301896111f4565b828103604084015261133c81896111f4565b606084018890526001600160a01b038716608085015260a0840186905283810360c08501528451808252602080870193509091019060005b81811015611392578351835260209384019390920191600101611374565b50909b9a5050505050505050505050565b600080600080600080600060e0888a0312156113be57600080fd5b6113c788611254565b96506113d560208901611254565b95506040880135945060608801359350608088013560ff811681146113f957600080fd5b9699959850939692959460a0840135945060c09093013592915050565b6000806040838503121561142957600080fd5b61143283611254565b915061144060208401611254565b90509250929050565b600181811c9082168061145d57607f821691505b60208210810361147d57634e487b7160e01b600052602260045260246000fd5b50919050565b60006020828403121561149557600080fd5b8151801515811461124d57600080fd5b8082018082111561041257634e487b7160e01b600052601160045260246000fd5b634e487b7160e01b600052602160045260246000fdfea26469706673582212208eee012b89d2b0ce6487cc8670c67daa3ec09bbeeec382c74c804cc9e1ae523a64736f6c634300081a0033",
  "linkReferences": {},
  "deployedLinkReferences": {}
}