{
  "address": "0x1a644410a489B9A05554c388e3c117Cd604808C9",
  "abi": [
    {
      "inputs": [
        {
          "internalType": "address",
          "name": "dailySavingsAddress",
          "type": "address"
        },
        {
          "internalType": "bytes[]",
          "name": "calls",
          "type": "bytes[]"
        }
      ],
      "name": "executeBatch",
      "outputs": [],
      "stateMutability": "nonpayable",
      "type": "function"
    }
  ],
  "transactionHash": "0x99afda98daad42179042e103233be5130f2a27b67f9497d0eb18226c259698ec",
  "args": [],
  "numDeployments": 1,
  "solcInputHash": "14602f48d37c576c8c28b7a471527747",
  "bytecode": "0x6080604052348015600f57600080fd5b506103d28061001f6000396000f3fe608060405234801561001057600080fd5b506004361061002b5760003560e01c8063b557d3a014610030575b600080fd5b61004361003e366004610170565b610045565b005b60005b8181101561011257600080856001600160a01b031685858581811061006f5761006f610206565b9050602002810190610081919061021c565b60405161008f92919061026a565b6000604051808303816000865af19150503d80600081146100cc576040519150601f19603f3d011682016040523d82523d6000602084013e6100d1565b606091505b5091509150816100e082610118565b906101075760405162461bcd60e51b81526004016100fe919061029e565b60405180910390fd5b505050600101610048565b50505050565b606060448251101561015057505060408051808201909152601081526f115e1958dd5d1a5bdb8819985a5b195960821b602082015290565b6004820191508180602001905181019061016a91906102e7565b92915050565b60008060006040848603121561018557600080fd5b83356001600160a01b038116811461019c57600080fd5b9250602084013567ffffffffffffffff8111156101b857600080fd5b8401601f810186136101c957600080fd5b803567ffffffffffffffff8111156101e057600080fd5b8660208260051b84010111156101f557600080fd5b939660209190910195509293505050565b634e487b7160e01b600052603260045260246000fd5b6000808335601e1984360301811261023357600080fd5b83018035915067ffffffffffffffff82111561024e57600080fd5b60200191503681900382131561026357600080fd5b9250929050565b8183823760009101908152919050565b60005b8381101561029557818101518382015260200161027d565b50506000910152565b60208152600082518060208401526102bd81604085016020870161027a565b601f01601f19169190910160400192915050565b634e487b7160e01b600052604160045260246000fd5b6000602082840312156102f957600080fd5b815167ffffffffffffffff81111561031057600080fd5b8201601f8101841361032157600080fd5b805167ffffffffffffffff81111561033b5761033b6102d1565b604051601f8201601f19908116603f0116810167ffffffffffffffff8111828210171561036a5761036a6102d1565b60405281815282820160200186101561038257600080fd5b61039382602083016020860161027a565b9594505050505056fea264697066735822122066c9de13dad846d5edb0ad186eac89a069515da822489219ae1e1d6fd9e9a39264736f6c634300081a0033",
  "devdoc": {
    "kind": "dev",
    "methods": {},
    "version": 1
  },
  "userdoc": {
    "kind": "user",
    "methods": {},
    "version": 1
  },
  "storageLayout": {
    "storage": [],
    "types": null
  }
}