{
  "address": "0xb5dbFa780ddeA99978319F56343cBeCc4a26199A",
  "abi": [
    {
      "inputs": [],
      "stateMutability": "nonpayable",
      "type": "constructor"
    },
    {
      "inputs": [],
      "name": "ECDSAInvalidSignature",
      "type": "error"
    },
    {
      "inputs": [
        {
          "internalType": "uint256",
          "name": "length",
          "type": "uint256"
        }
      ],
      "name": "ECDSAInvalidSignatureLength",
      "type": "error"
    },
    {
      "inputs": [
        {
          "internalType": "bytes32",
          "name": "s",
          "type": "bytes32"
        }
      ],
      "name": "ECDSAInvalidSignatureS",
      "type": "error"
    },
    {
      "inputs": [
        {
          "internalType": "address",
          "name": "owner",
          "type": "address"
        }
      ],
      "name": "OwnableInvalidOwner",
      "type": "error"
    },
    {
      "inputs": [
        {
          "internalType": "address",
          "name": "account",
          "type": "address"
        }
      ],
      "name": "OwnableUnauthorizedAccount",
      "type": "error"
    },
    {
      "inputs": [],
      "name": "ReentrancyGuardReentrantCall",
      "type": "error"
    },
    {
      "anonymous": false,
      "inputs": [
        {
          "indexed": false,
          "internalType": "uint256",
          "name": "executedCount",
          "type": "uint256"
        },
        {
          "indexed": false,
          "internalType": "uint256",
          "name": "timestamp",
          "type": "uint256"
        }
      ],
      "name": "BatchExecutionCompleted",
      "type": "event"
    },
    {
      "anonymous": false,
      "inputs": [
        {
          "indexed": true,
          "internalType": "address",
          "name": "saver",
          "type": "address"
        },
        {
          "indexed": true,
          "internalType": "address",
          "name": "helper",
          "type": "address"
        },
        {
          "indexed": false,
          "internalType": "bool",
          "name": "isAuthorized",
          "type": "bool"
        }
      ],
      "name": "HelperAuthorized",
      "type": "event"
    },
    {
      "anonymous": false,
      "inputs": [
        {
          "indexed": true,
          "internalType": "address",
          "name": "previousOwner",
          "type": "address"
        },
        {
          "indexed": true,
          "internalType": "address",
          "name": "newOwner",
          "type": "address"
        }
      ],
      "name": "OwnershipTransferred",
      "type": "event"
    },
    {
      "anonymous": false,
      "inputs": [
        {
          "indexed": true,
          "internalType": "bytes32",
          "name": "planId",
          "type": "bytes32"
        },
        {
          "indexed": true,
          "internalType": "address",
          "name": "saver",
          "type": "address"
        }
      ],
      "name": "PlanCancelled",
      "type": "event"
    },
    {
      "anonymous": false,
      "inputs": [
        {
          "indexed": true,
          "internalType": "bytes32",
          "name": "planId",
          "type": "bytes32"
        },
        {
          "indexed": true,
          "internalType": "address",
          "name": "saver",
          "type": "address"
        },
        {
          "indexed": false,
          "internalType": "address",
          "name": "recipient",
          "type": "address"
        },
        {
          "indexed": false,
          "internalType": "uint256",
          "name": "dailyAmount",
          "type": "uint256"
        }
      ],
      "name": "PlanCreated",
      "type": "event"
    },
    {
      "anonymous": false,
      "inputs": [
        {
          "indexed": true,
          "internalType": "bytes32",
          "name": "planId",
          "type": "bytes32"
        },
        {
          "indexed": false,
          "internalType": "bytes",
          "name": "data",
          "type": "bytes"
        }
      ],
      "name": "PlanDataUpdated",
      "type": "event"
    },
    {
      "anonymous": false,
      "inputs": [
        {
          "indexed": true,
          "internalType": "bytes32",
          "name": "planId",
          "type": "bytes32"
        },
        {
          "indexed": false,
          "internalType": "uint256",
          "name": "transferAmount",
          "type": "uint256"
        },
        {
          "indexed": false,
          "internalType": "uint256",
          "name": "timestamp",
          "type": "uint256"
        }
      ],
      "name": "PlanExecuted",
      "type": "event"
    },
    {
      "anonymous": false,
      "inputs": [
        {
          "indexed": true,
          "internalType": "address",
          "name": "relayer",
          "type": "address"
        },
        {
          "indexed": false,
          "internalType": "bool",
          "name": "isAuthorized",
          "type": "bool"
        }
      ],
      "name": "RelayerUpdated",
      "type": "event"
    },
    {
      "anonymous": false,
      "inputs": [
        {
          "indexed": true,
          "internalType": "address",
          "name": "user",
          "type": "address"
        },
        {
          "indexed": true,
          "internalType": "address",
          "name": "token",
          "type": "address"
        },
        {
          "indexed": false,
          "internalType": "uint256",
          "name": "amount",
          "type": "uint256"
        }
      ],
      "name": "TokenDeposited",
      "type": "event"
    },
    {
      "anonymous": false,
      "inputs": [
        {
          "indexed": true,
          "internalType": "address",
          "name": "user",
          "type": "address"
        },
        {
          "indexed": true,
          "internalType": "address",
          "name": "token",
          "type": "address"
        },
        {
          "indexed": false,
          "internalType": "uint256",
          "name": "amount",
          "type": "uint256"
        }
      ],
      "name": "TokenWithdrawn",
      "type": "event"
    },
    {
      "anonymous": false,
      "inputs": [
        {
          "indexed": true,
          "internalType": "address",
          "name": "user",
          "type": "address"
        },
        {
          "indexed": true,
          "internalType": "address",
          "name": "token",
          "type": "address"
        },
        {
          "indexed": false,
          "internalType": "uint256",
          "name": "amount",
          "type": "uint256"
        }
      ],
      "name": "YieldClaimed",
      "type": "event"
    },
    {
      "anonymous": false,
      "inputs": [
        {
          "indexed": true,
          "internalType": "address",
          "name": "token",
          "type": "address"
        },
        {
          "indexed": false,
          "internalType": "uint256",
          "name": "newYieldRate",
          "type": "uint256"
        }
      ],
      "name": "YieldRateUpdated",
      "type": "event"
    },
    {
      "inputs": [],
      "name": "BASIS_POINTS",
      "outputs": [
        {
          "internalType": "uint256",
          "name": "",
          "type": "uint256"
        }
      ],
      "stateMutability": "view",
      "type": "function"
    },
    {
      "inputs": [],
      "name": "DOMAIN_SEPARATOR",
      "outputs": [
        {
          "internalType": "bytes32",
          "name": "",
          "type": "bytes32"
        }
      ],
      "stateMutability": "view",
      "type": "function"
    },
    {
      "inputs": [],
      "name": "HELPER_TYPEHASH",
      "outputs": [
        {
          "internalType": "bytes32",
          "name": "",
          "type": "bytes32"
        }
      ],
      "stateMutability": "view",
      "type": "function"
    },
    {
      "inputs": [],
      "name": "PLAN_TYPEHASH",
      "outputs": [
        {
          "internalType": "bytes32",
          "name": "",
          "type": "bytes32"
        }
      ],
      "stateMutability": "view",
      "type": "function"
    },
    {
      "inputs": [],
      "name": "YIELD_INDEX_PRECISION",
      "outputs": [
        {
          "internalType": "uint256",
          "name": "",
          "type": "uint256"
        }
      ],
      "stateMutability": "view",
      "type": "function"
    },
    {
      "inputs": [
        {
          "internalType": "address",
          "name": "helper",
          "type": "address"
        },
        {
          "internalType": "bool",
          "name": "isAuthorized",
          "type": "bool"
        }
      ],
      "name": "authorizeHelper",
      "outputs": [],
      "stateMutability": "nonpayable",
      "type": "function"
    },
    {
      "inputs": [
        {
          "internalType": "address",
          "name": "",
          "type": "address"
        },
        {
          "internalType": "address",
          "name": "",
          "type": "address"
        }
      ],
      "name": "authorizedHelpers",
      "outputs": [
        {
          "internalType": "bool",
          "name": "",
          "type": "bool"
        }
      ],
      "stateMutability": "view",
      "type": "function"
    },
    {
      "inputs": [
        {
          "internalType": "address",
          "name": "",
          "type": "address"
        }
      ],
      "name": "authorizedRelayers",
      "outputs": [
        {
          "internalType": "bool",
          "name": "",
          "type": "bool"
        }
      ],
      "stateMutability": "view",
      "type": "function"
    },
    {
      "inputs": [
        {
          "internalType": "bytes32",
          "name": "planId",
          "type": "bytes32"
        }
      ],
      "name": "cancelPlan",
      "outputs": [],
      "stateMutability": "nonpayable",
      "type": "function"
    },
    {
      "inputs": [
        {
          "internalType": "address",
          "name": "tokenAddress",
          "type": "address"
        }
      ],
      "name": "claimYield",
      "outputs": [],
      "stateMutability": "nonpayable",
      "type": "function"
    },
    {
      "inputs": [
        {
          "internalType": "address",
          "name": "tokenAddress",
          "type": "address"
        },
        {
          "internalType": "address",
          "name": "recipientAddress",
          "type": "address"
        },
        {
          "internalType": "uint256",
          "name": "dailyAmount",
          "type": "uint256"
        },
        {
          "internalType": "uint256",
          "name": "startDate",
          "type": "uint256"
        },
        {
          "internalType": "uint256",
          "name": "endDate",
          "type": "uint256"
        },
        {
          "internalType": "bytes",
          "name": "extraData",
          "type": "bytes"
        }
      ],
      "name": "createPlan",
      "outputs": [
        {
          "internalType": "bytes32",
          "name": "planId",
          "type": "bytes32"
        }
      ],
      "stateMutability": "nonpayable",
      "type": "function"
    },
    {
      "inputs": [
        {
          "internalType": "address",
          "name": "tokenAddress",
          "type": "address"
        },
        {
          "internalType": "address",
          "name": "recipientAddress",
          "type": "address"
        },
        {
          "internalType": "uint256",
          "name": "dailyAmount",
          "type": "uint256"
        },
        {
          "internalType": "uint256",
          "name": "startDate",
          "type": "uint256"
        },
        {
          "internalType": "uint256",
          "name": "endDate",
          "type": "uint256"
        },
        {
          "internalType": "bytes",
          "name": "signature",
          "type": "bytes"
        },
        {
          "internalType": "bytes",
          "name": "extraData",
          "type": "bytes"
        }
      ],
      "name": "createPlanWithSignature",
      "outputs": [
        {
          "internalType": "bytes32",
          "name": "planId",
          "type": "bytes32"
        }
      ],
      "stateMutability": "nonpayable",
      "type": "function"
    },
    {
      "inputs": [],
      "name": "dailyTransferInterval",
      "outputs": [
        {
          "internalType": "uint256",
          "name": "",
          "type": "uint256"
        }
      ],
      "stateMutability": "view",
      "type": "function"
    },
    {
      "inputs": [
        {
          "internalType": "address",
          "name": "tokenAddress",
          "type": "address"
        },
        {
          "internalType": "uint256",
          "name": "amount",
          "type": "uint256"
        }
      ],
      "name": "deposit",
      "outputs": [],
      "stateMutability": "nonpayable",
      "type": "function"
    },
    {
      "inputs": [
        {
          "internalType": "bytes32",
          "name": "planId",
          "type": "bytes32"
        }
      ],
      "name": "executePlan",
      "outputs": [
        {
          "internalType": "bool",
          "name": "success",
          "type": "bool"
        }
      ],
      "stateMutability": "nonpayable",
      "type": "function"
    },
    {
      "inputs": [
        {
          "internalType": "bytes32[]",
          "name": "planIds",
          "type": "bytes32[]"
        }
      ],
      "name": "executePlans",
      "outputs": [
        {
          "internalType": "uint256",
          "name": "executedCount",
          "type": "uint256"
        }
      ],
      "stateMutability": "nonpayable",
      "type": "function"
    },
    {
      "inputs": [],
      "name": "executionWindow",
      "outputs": [
        {
          "internalType": "uint256",
          "name": "",
          "type": "uint256"
        }
      ],
      "stateMutability": "view",
      "type": "function"
    },
    {
      "inputs": [
        {
          "internalType": "address",
          "name": "tokenAddress",
          "type": "address"
        },
        {
          "internalType": "uint256",
          "name": "maxResults",
          "type": "uint256"
        }
      ],
      "name": "getExecutablePlans",
      "outputs": [
        {
          "internalType": "bytes32[]",
          "name": "planIds",
          "type": "bytes32[]"
        }
      ],
      "stateMutability": "view",
      "type": "function"
    },
    {
      "inputs": [
        {
          "internalType": "address",
          "name": "user",
          "type": "address"
        },
        {
          "internalType": "address",
          "name": "tokenAddress",
          "type": "address"
        }
      ],
      "name": "getPendingYield",
      "outputs": [
        {
          "internalType": "uint256",
          "name": "",
          "type": "uint256"
        }
      ],
      "stateMutability": "view",
      "type": "function"
    },
    {
      "inputs": [
        {
          "internalType": "bytes32",
          "name": "planId",
          "type": "bytes32"
        }
      ],
      "name": "getPlan",
      "outputs": [
        {
          "components": [
            {
              "internalType": "address",
              "name": "saver",
              "type": "address"
            },
            {
              "internalType": "address",
              "name": "token",
              "type": "address"
            },
            {
              "internalType": "address",
              "name": "recipient",
              "type": "address"
            },
            {
              "internalType": "uint256",
              "name": "dailyAmount",
              "type": "uint256"
            },
            {
              "internalType": "uint256",
              "name": "startDate",
              "type": "uint256"
            },
            {
              "internalType": "uint256",
              "name": "endDate",
              "type": "uint256"
            },
            {
              "internalType": "uint256",
              "name": "lastTransferDate",
              "type": "uint256"
            },
            {
              "internalType": "uint256",
              "name": "planNumber",
              "type": "uint256"
            },
            {
              "internalType": "bool",
              "name": "isActive",
              "type": "bool"
            }
          ],
          "internalType": "struct YieldSavingsVaultWithRelayer.SavingsPlan",
          "name": "",
          "type": "tuple"
        }
      ],
      "stateMutability": "view",
      "type": "function"
    },
    {
      "inputs": [
        {
          "internalType": "address",
          "name": "saver",
          "type": "address"
        }
      ],
      "name": "getSaverPlans",
      "outputs": [
        {
          "internalType": "bytes32[]",
          "name": "",
          "type": "bytes32[]"
        }
      ],
      "stateMutability": "view",
      "type": "function"
    },
    {
      "inputs": [
        {
          "internalType": "address",
          "name": "tokenAddress",
          "type": "address"
        }
      ],
      "name": "getTokenYieldRate",
      "outputs": [
        {
          "internalType": "uint256",
          "name": "",
          "type": "uint256"
        }
      ],
      "stateMutability": "view",
      "type": "function"
    },
    {
      "inputs": [
        {
          "internalType": "address",
          "name": "user",
          "type": "address"
        },
        {
          "internalType": "address",
          "name": "tokenAddress",
          "type": "address"
        }
      ],
      "name": "getUserTotalBalance",
      "outputs": [
        {
          "internalType": "uint256",
          "name": "",
          "type": "uint256"
        }
      ],
      "stateMutability": "view",
      "type": "function"
    },
    {
      "inputs": [],
      "name": "owner",
      "outputs": [
        {
          "internalType": "address",
          "name": "",
          "type": "address"
        }
      ],
      "stateMutability": "view",
      "type": "function"
    },
    {
      "inputs": [],
      "name": "renounceOwnership",
      "outputs": [],
      "stateMutability": "nonpayable",
      "type": "function"
    },
    {
      "inputs": [
        {
          "internalType": "bytes32",
          "name": "",
          "type": "bytes32"
        }
      ],
      "name": "savingsPlans",
      "outputs": [
        {
          "internalType": "address",
          "name": "saver",
          "type": "address"
        },
        {
          "internalType": "address",
          "name": "token",
          "type": "address"
        },
        {
          "internalType": "address",
          "name": "recipient",
          "type": "address"
        },
        {
          "internalType": "uint256",
          "name": "dailyAmount",
          "type": "uint256"
        },
        {
          "internalType": "uint256",
          "name": "startDate",
          "type": "uint256"
        },
        {
          "internalType": "uint256",
          "name": "endDate",
          "type": "uint256"
        },
        {
          "internalType": "uint256",
          "name": "lastTransferDate",
          "type": "uint256"
        },
        {
          "internalType": "uint256",
          "name": "planNumber",
          "type": "uint256"
        },
        {
          "internalType": "bool",
          "name": "isActive",
          "type": "bool"
        }
      ],
      "stateMutability": "view",
      "type": "function"
    },
    {
      "inputs": [
        {
          "internalType": "uint256",
          "name": "newDailyInterval",
          "type": "uint256"
        },
        {
          "internalType": "uint256",
          "name": "newExecutionWindow",
          "type": "uint256"
        }
      ],
      "name": "setExecutionParameters",
      "outputs": [],
      "stateMutability": "nonpayable",
      "type": "function"
    },
    {
      "inputs": [
        {
          "internalType": "address",
          "name": "relayer",
          "type": "address"
        },
        {
          "internalType": "bool",
          "name": "isAuthorized",
          "type": "bool"
        }
      ],
      "name": "setRelayer",
      "outputs": [],
      "stateMutability": "nonpayable",
      "type": "function"
    },
    {
      "inputs": [
        {
          "internalType": "address",
          "name": "tokenAddress",
          "type": "address"
        },
        {
          "internalType": "uint256",
          "name": "yearlyYieldRate",
          "type": "uint256"
        }
      ],
      "name": "setTokenYieldRate",
      "outputs": [],
      "stateMutability": "nonpayable",
      "type": "function"
    },
    {
      "inputs": [
        {
          "internalType": "address",
          "name": "",
          "type": "address"
        }
      ],
      "name": "tokenYieldConfigs",
      "outputs": [
        {
          "internalType": "uint256",
          "name": "yearlyYieldRate",
          "type": "uint256"
        },
        {
          "internalType": "uint256",
          "name": "lastUpdateTime",
          "type": "uint256"
        },
        {
          "internalType": "uint256",
          "name": "yieldIndex",
          "type": "uint256"
        }
      ],
      "stateMutability": "view",
      "type": "function"
    },
    {
      "inputs": [
        {
          "internalType": "address",
          "name": "",
          "type": "address"
        }
      ],
      "name": "totalTokenDeposits",
      "outputs": [
        {
          "internalType": "uint256",
          "name": "",
          "type": "uint256"
        }
      ],
      "stateMutability": "view",
      "type": "function"
    },
    {
      "inputs": [
        {
          "internalType": "address",
          "name": "newOwner",
          "type": "address"
        }
      ],
      "name": "transferOwnership",
      "outputs": [],
      "stateMutability": "nonpayable",
      "type": "function"
    },
    {
      "inputs": [
        {
          "internalType": "bytes32",
          "name": "planId",
          "type": "bytes32"
        },
        {
          "internalType": "bytes",
          "name": "data",
          "type": "bytes"
        }
      ],
      "name": "updatePlanData",
      "outputs": [],
      "stateMutability": "nonpayable",
      "type": "function"
    },
    {
      "inputs": [
        {
          "internalType": "address",
          "name": "",
          "type": "address"
        }
      ],
      "name": "userPlanCount",
      "outputs": [
        {
          "internalType": "uint256",
          "name": "",
          "type": "uint256"
        }
      ],
      "stateMutability": "view",
      "type": "function"
    },
    {
      "inputs": [
        {
          "internalType": "address",
          "name": "",
          "type": "address"
        },
        {
          "internalType": "uint256",
          "name": "",
          "type": "uint256"
        }
      ],
      "name": "userPlans",
      "outputs": [
        {
          "internalType": "bytes32",
          "name": "",
          "type": "bytes32"
        }
      ],
      "stateMutability": "view",
      "type": "function"
    },
    {
      "inputs": [
        {
          "internalType": "address",
          "name": "",
          "type": "address"
        },
        {
          "internalType": "address",
          "name": "",
          "type": "address"
        }
      ],
      "name": "userTokenBalances",
      "outputs": [
        {
          "internalType": "uint256",
          "name": "",
          "type": "uint256"
        }
      ],
      "stateMutability": "view",
      "type": "function"
    },
    {
      "inputs": [
        {
          "internalType": "address",
          "name": "",
          "type": "address"
        },
        {
          "internalType": "address",
          "name": "",
          "type": "address"
        }
      ],
      "name": "userYieldIndexes",
      "outputs": [
        {
          "internalType": "uint256",
          "name": "",
          "type": "uint256"
        }
      ],
      "stateMutability": "view",
      "type": "function"
    },
    {
      "inputs": [
        {
          "internalType": "address",
          "name": "tokenAddress",
          "type": "address"
        },
        {
          "internalType": "uint256",
          "name": "amount",
          "type": "uint256"
        }
      ],
      "name": "withdraw",
      "outputs": [],
      "stateMutability": "nonpayable",
      "type": "function"
    }
  ],
  "transactionHash": "0xeb322b8cbb84c172eac90c3b9b182ae85814dd9592175a0fa73cd69a71dfe946",
  "args": [],
  "numDeployments": 1,
  "solcInputHash": "ff51b70cab644154c053d93fea8f8b2b",
  "bytecode": "0x60a060405262015180600c55612a30600d5534801561001d57600080fd5b50338061004457604051631e4fbdf760e01b81526000600482015260240160405180910390fd5b61004d8161018c565b506001808055604080518082018252601c81527f5969656c64536176696e67735661756c745769746852656c617965720000000060209182015281518083018352928352603160f81b9281019290925280517f8b73c3c69bb8fe3d512ecc4cf759cc79239f7b179b0ffacaa9a75d522b39400f928101929092527f93df1103deb7bc0acc7161dec47f49237fdf28cc1817672577af0fc586d5357c908201527fc89efdaa54c0f20c7adf612882df0950f5a951637e0307cdcb4c672f298b8bc660608201524660808201523060a082015260c00160408051601f198184030181528282528051602091820120608052336000818152600a835292909220805460ff19166001908117909155835290917f4b36b2e66f38ed349bec532105790177f1283bcbc094e6cd48565195d3033c43910160405180910390a26101dc565b600080546001600160a01b038381166001600160a01b0319831681178455604051919092169283917f8be0079c531659141344cd1fd0a4f28419497f9722a3daafe3b4186f6b6457e09190a35050565b60805161329e6101fe6000396000818161030201526123e5015261329e6000f3fe608060405234801561001057600080fd5b50600436106102325760003560e01c8063831820f011610130578063c3776e6e116100b8578063ef51b7581161007c578063ef51b7581461065c578063f0fc539f1461066f578063f2fde38b14610696578063f3fef3a3146106a9578063fa8e7ed3146106bc57600080fd5b8063c3776e6e14610607578063d55742cc1461061a578063e1f1c4a71461062d578063e834946d14610636578063ecd8dc3a1461064957600080fd5b8063999927df116100ff578063999927df146105875780639ca12d7b1461059a578063a08af5b2146105c1578063a0f73826146105d4578063bde4592c146105f457600080fd5b8063831820f0146104e65780638da5cb5b146104f957806398b5dddd14610514578063994a8a1c1461055e57600080fd5b806345f2d105116101be5780635b9acc2c116101825780635b9acc2c146104715780635f4f3f231461049c578063715018a6146104bc5780637ad63326146104c4578063811eb7f0146104d757600080fd5b806345f2d1051461032457806347e7ef241461034f5780634c935590146103625780634d279b9e146103825780635963e4ff1461044357600080fd5b8063243d82f611610205578063243d82f61461029b57806326ebb35b146102a45780632893e770146102b757806329e295c5146102ca5780633644e515146102fd57600080fd5b806312f4d3141461023757806317c5993a1461026a5780631b0279f2146102735780631c18ced614610288575b600080fd5b610257610245366004612a3f565b600b6020526000908152604090205481565b6040519081526020015b60405180910390f35b610257600d5481565b610286610281366004612aaa565b6106cf565b005b610257610296366004612af6565b6107ef565b610257600c5481565b6102576102b2366004612b6d565b6108df565b6102866102c5366004612c22565b610c5b565b6102ed6102d8366004612a3f565b600a6020526000908152604090205460ff1681565b6040519015158152602001610261565b6102577f000000000000000000000000000000000000000000000000000000000000000081565b610257610332366004612c44565b600260209081526000928352604080842090915290825290205481565b61028661035d366004612c77565b610d05565b610375610370366004612c77565b610f5b565b6040516102619190612ca1565b6103ee610390366004612ce4565b60066020819052600091825260409091208054600182015460028301546003840154600485015460058601549686015460078701546008909701546001600160a01b0396871698958716979690941695929491939192909160ff1689565b604080516001600160a01b039a8b168152988a1660208a015296909816958701959095526060860193909352608085019190915260a084015260c083015260e082015290151561010082015261012001610261565b6102ed610451366004612c44565b600960209081526000928352604080842090915290825290205460ff1681565b61025761047f366004612c44565b600360209081526000928352604080842090915290825290205481565b6102576104aa366004612a3f565b60056020526000908152604090205481565b610286611200565b6102576104d2366004612c44565b611214565b610257670de0b6b3a764000081565b6102576104f4366004612c77565b611303565b6000546040516001600160a01b039091168152602001610261565b610543610522366004612a3f565b60046020526000908152604090208054600182015460029092015490919083565b60408051938452602084019290925290820152606001610261565b61025761056c366004612a3f565b6001600160a01b031660009081526004602052604090205490565b610286610595366004612a3f565b611334565b6102577fb8e3599eac2048e8ade8153abf0daaf8279e5be5deb24fc64857b989ce84a2f481565b6102866105cf366004612d0b565b61135b565b6105e76105e2366004612ce4565b6113c7565b6040516102619190612d42565b610286610602366004612ce4565b6114c0565b610286610615366004612c77565b61166e565b6102ed610628366004612ce4565b6117bf565b61025761271081565b610375610644366004612a3f565b611827565b610286610657366004612d0b565b611893565b61025761066a366004612dbf565b611949565b6102577f02b33d7f3c253ee46f879dd431f2035238e54ecb5c043eea5c931283680c203a81565b6102866106a4366004612a3f565b611c67565b6102866106b7366004612c77565b611ca2565b6102576106ca366004612c44565b611e67565b600083815260066020526040902080546001600160a01b031661072e5760405162461bcd60e51b8152602060048201526012602482015271141b185b88191bd95cdb89dd08195e1a5cdd60721b60448201526064015b60405180910390fd5b80546001600160a01b031633148061076a575080546001600160a01b0316600090815260096020908152604080832033845290915290205460ff165b6107a75760405162461bcd60e51b815260206004820152600e60248201526d139bdd08185d5d1a1bdc9a5e995960921b6044820152606401610725565b60008481526007602052604090206107c0838583612ee0565b508360008051602061324983398151915284846040516107e1929190612fa0565b60405180910390a250505050565b336000908152600a602052604081205460ff1661081e5760405162461bcd60e51b815260040161072590612fcf565b506000805b828110156108a05760006006600086868581811061084357610843613006565b905060200201358152602001908152602001600020905061086381611fbd565b156108975761088985858481811061087d5761087d613006565b90506020020135612023565b8261089381613032565b9350505b50600101610823565b50604080518281524260208201527fde781b57579de0538a6e6181c8be502cede35db52d09af8ba0d337ceb0739916910160405180910390a192915050565b60006001600160a01b038a166109075760405162461bcd60e51b81526004016107259061304b565b6001600160a01b0389166109515760405162461bcd60e51b8152602060048201526011602482015270125b9d985b1a59081c9958da5c1a595b9d607a1b6044820152606401610725565b600088116109715760405162461bcd60e51b815260040161072590613072565b336000908152600b602052604081208054908261098d83613032565b9190505590506109a2338c8c8c8c8c87612353565b915060006109b183888861242f565b90506001600160a01b03811633146109ff5760405162461bcd60e51b8152602060048201526011602482015270496e76616c6964207369676e617475726560781b6044820152606401610725565b6000604051806101200160405280336001600160a01b031681526020018e6001600160a01b031681526020018d6001600160a01b031681526020018c8152602001428c11610a4d5742610a4f565b8b5b815260208082018c90524260408084019190915260608084018890526001608094850181905260008a81526006808652848220885181546001600160a01b03199081166001600160a01b039283161783558a890151838701805483169184169190911790558a880151600284018054909216921691909117905593880151600385015595870151600484015560a0870151600584015560c08701519583019590955560e086015160078301556101008601516008928301805460ff191691151591909117905533855290835290832080549182018155835291200185905590508415610b78576000848152600760205260409020610b4e868883612ee0565b50836000805160206132498339815191528787604051610b6f929190612fa0565b60405180910390a25b6001600160a01b038d166000908152600460205260408120600201549003610c0557604051806060016040528060008152602001428152602001670de0b6b3a7640000815250600460008f6001600160a01b03166001600160a01b031681526020019081526020016000206000820151816000015560208201518160010155604082015181600201559050505b604080516001600160a01b038e168152602081018d9052339186917f0b5f9939edb0526ea97e679627c344f00a09a4a27ea6fc4d7151cdc9cfbaa6ba910160405180910390a35050509998505050505050505050565b610c63612484565b610e10821015610caa5760405162461bcd60e51b8152602060048201526012602482015271125b9d195c9d985b081d1bdbc81cda1bdc9d60721b6044820152606401610725565b81811115610cfa5760405162461bcd60e51b815260206004820152601760248201527f57696e646f77206578636565647320696e74657276616c0000000000000000006044820152606401610725565b600c91909155600d55565b610d0d6124b1565b6001600160a01b038216610d335760405162461bcd60e51b81526004016107259061304b565b60008111610d535760405162461bcd60e51b815260040161072590613072565b6001600160a01b038216600090815260046020526040902054610db85760405162461bcd60e51b815260206004820152601d60248201527f546f6b656e206e6f7420737570706f7274656420666f72207969656c640000006044820152606401610725565b610dc1826124db565b6001600160a01b0382166000818152600460209081526040808320600290810154338552908352818420948452939091528120549003610e26573360009081526003602090815260408083206001600160a01b03871684529091529020819055610e30565b610e3033846125ab565b6040516323b872dd60e01b8152336004820152306024820152604481018390526001600160a01b038416906323b872dd906064016020604051808303816000875af1158015610e83573d6000803e3d6000fd5b505050506040513d601f19601f82011682018060405250810190610ea791906130a9565b503360009081526002602090815260408083206001600160a01b038716845290915281208054849290610edb9084906130c6565b90915550506001600160a01b03831660009081526005602052604081208054849290610f089084906130c6565b90915550506040518281526001600160a01b0384169033907ff1444b5cad7ce70cb018d1b8edc8618fe303f3c7f034d8d572a6e27facbf2bef9060200160405180910390a350610f5760018055565b5050565b336000908152600a602052604090205460609060ff16610f8d5760405162461bcd60e51b815260040161072590612fcf565b60008267ffffffffffffffff811115610fa857610fa8612e41565b604051908082528060200260200182016040528015610fd1578160200160208202803683370190505b509050600080610fdf61274e565b905060005b815181108015610ff357508583105b156111655760006008600084848151811061101057611010613006565b60200260200101516001600160a01b03166001600160a01b0316815260200190815260200160002080548060200260200160405190810160405280929190818152602001828054801561108257602002820191906000526020600020905b81548152602001906001019080831161106e575b5050505050905060005b81518110801561109b57508785105b156111505760008282815181106110b4576110b4613006565b6020026020010151905060006006600083815260200190815260200160002090506110de81611fbd565b801561110a57506001600160a01b038b16158061110a575060018101546001600160a01b038c81169116145b1561113b578188888151811061112257611122613006565b60209081029190910101528661113781613032565b9750505b5050808061114890613032565b91505061108c565b5050808061115d90613032565b915050610fe4565b508167ffffffffffffffff81111561117f5761117f612e41565b6040519080825280602002602001820160405280156111a8578160200160208202803683370190505b50935060005b828110156111f5578381815181106111c8576111c8613006565b60200260200101518582815181106111e2576111e2613006565b60209081029190910101526001016111ae565b505050505b92915050565b611208612484565b61121260006127a6565b565b6001600160a01b03808316600090815260026020908152604080832093851683529290529081205480820361124d5760009150506111fa565b6001600160a01b0380841660008181526004602090815260408083208151606081018352815481526001820154818501526002909101548183015294891683526003825280832093835292905220548015806112ad575080826040015111155b156112bd578293505050506111fa565b6000670de0b6b3a76400008284604001516112d891906130d9565b6112e290866130ec565b6112ec9190613103565b90506112f881856130c6565b979650505050505050565b6008602052816000526040600020818154811061131f57600080fd5b90600052602060002001600091509150505481565b61133c6124b1565b611345816124db565b61134f33826125ab565b61135860018055565b50565b3360008181526009602090815260408083206001600160a01b03871680855290835292819020805460ff191686151590811790915590519081529192917f2d5c4dd6ebe074068e697993c252a56de5af0883b105e6e5a5eabe4d513bc8d4910160405180910390a35050565b61143360405180610120016040528060006001600160a01b0316815260200160006001600160a01b0316815260200160006001600160a01b0316815260200160008152602001600081526020016000815260200160008152602001600081526020016000151581525090565b5060009081526006602081815260409283902083516101208101855281546001600160a01b03908116825260018301548116938201939093526002820154909216938201939093526003830154606082015260048301546080820152600583015460a08201529082015460c0820152600782015460e082015260089091015460ff16151561010082015290565b600081815260066020526040902080546001600160a01b031661151a5760405162461bcd60e51b8152602060048201526012602482015271141b185b88191bd95cdb89dd08195e1a5cdd60721b6044820152606401610725565b80546001600160a01b031633146115635760405162461bcd60e51b815260206004820152600d60248201526c2737ba103cb7bab910383630b760991b6044820152606401610725565b600881015460ff166115af5760405162461bcd60e51b8152602060048201526015602482015274506c616e20616c726561647920696e61637469766560581b6044820152606401610725565b60088101805460ff191690556040805160208101829052600960608201526810d05390d15313115160ba1b6080820152429181019190915260009060a00160408051601f1981840301815291815260008581526007602052209091506116158282613125565b50604051339084907f02667651b7ff0ad10c8713b2574650305ca8dc0130ed2df2a59d7d837d61deef90600090a3826000805160206132498339815191528260405161166191906131e4565b60405180910390a2505050565b611676612484565b6001600160a01b03821661169c5760405162461bcd60e51b81526004016107259061304b565b6127108111156116de5760405162461bcd60e51b815260206004820152600d60248201526c0a4c2e8ca40e8dede40d0d2ced609b1b6044820152606401610725565b6116e7826124db565b6001600160a01b038216600090815260046020526040812060020154900361175c5760408051606081018252828152426020808301918252670de0b6b3a76400008385019081526001600160a01b03871660009081526004909252939020915182555160018201559051600290910155611778565b6001600160a01b03821660009081526004602052604090208190555b816001600160a01b03167f8c40390db560782efda093b2b24fca89e60374af432f4c675688fa8b61108eab826040516117b391815260200190565b60405180910390a25050565b336000908152600a602052604081205460ff166117ee5760405162461bcd60e51b815260040161072590612fcf565b600082815260066020526040902061180581611fbd565b1561181c5761181383612023565b50600192915050565b60009150505b919050565b6001600160a01b03811660009081526008602090815260409182902080548351818402810184019094528084526060939283018282801561188757602002820191906000526020600020905b815481526020019060010190808311611873575b50505050509050919050565b61189b612484565b6001600160a01b0382166118f15760405162461bcd60e51b815260206004820152601760248201527f496e76616c69642072656c6179657220616464726573730000000000000000006044820152606401610725565b6001600160a01b0382166000818152600a6020908152604091829020805460ff191685151590811790915591519182527f4b36b2e66f38ed349bec532105790177f1283bcbc094e6cd48565195d3033c4391016117b3565b60006001600160a01b0388166119715760405162461bcd60e51b81526004016107259061304b565b6001600160a01b0387166119bb5760405162461bcd60e51b8152602060048201526011602482015270125b9d985b1a59081c9958da5c1a595b9d607a1b6044820152606401610725565b600086116119db5760405162461bcd60e51b815260040161072590613072565b336000908152600b60205260408120805490826119f783613032565b919050559050611a0c338a8a8a8a8a87612353565b91506000604051806101200160405280336001600160a01b031681526020018b6001600160a01b031681526020018a6001600160a01b03168152602001898152602001428911611a5c5742611a5e565b885b815260208082018990524260408084019190915260608084018790526001608094850181905260008981526006808652848220885181546001600160a01b03199081166001600160a01b039283161783558a890151838701805483169184169190911790558a880151600284018054909216921691909117905593880151600385015595870151600484015560a0870151600584015560c08701519583019590955560e086015160078301556101008601516008928301805460ff191691151591909117905533855290835290832080549182018155835291200184905590508315611b87576000838152600760205260409020611b5d858783612ee0565b50826000805160206132498339815191528686604051611b7e929190612fa0565b60405180910390a25b6001600160a01b038a166000908152600460205260408120600201549003611c1457604051806060016040528060008152602001428152602001670de0b6b3a7640000815250600460008c6001600160a01b03166001600160a01b031681526020019081526020016000206000820151816000015560208201518160010155604082015181600201559050505b604080516001600160a01b038b168152602081018a9052339185917f0b5f9939edb0526ea97e679627c344f00a09a4a27ea6fc4d7151cdc9cfbaa6ba910160405180910390a35050979650505050505050565b611c6f612484565b6001600160a01b038116611c9957604051631e4fbdf760e01b815260006004820152602401610725565b611358816127a6565b611caa6124b1565b60008111611cca5760405162461bcd60e51b815260040161072590613072565b3360009081526002602090815260408083206001600160a01b0386168452909152902054811115611d345760405162461bcd60e51b8152602060048201526014602482015273496e73756666696369656e742062616c616e636560601b6044820152606401610725565b611d3d826124db565b611d4733836125ab565b3360009081526002602090815260408083206001600160a01b038616845290915281208054839290611d7a9084906130d9565b90915550506001600160a01b03821660009081526005602052604081208054839290611da79084906130d9565b909155505060405163a9059cbb60e01b8152336004820152602481018290526001600160a01b0383169063a9059cbb906044016020604051808303816000875af1158015611df9573d6000803e3d6000fd5b505050506040513d601f19601f82011682018060405250810190611e1d91906130a9565b506040518181526001600160a01b0383169033907f8210728e7c071f615b840ee026032693858fbcd5e5359e67e438c890f59e56209060200160405180910390a3610f5760018055565b6001600160a01b038083166000908152600260209081526040808320938516835292905290812054808203611ea05760009150506111fa565b6001600160a01b038084166000818152600460209081526040808320815160608101835281548152600182015481850152600290910154818301529489168352600382528083209383529290522054801580611f00575080826040015111155b15611f1157600093505050506111fa565b6040820151602083015142118015611f295750825115155b15611f96576000836020015142611f4091906130d9565b84519091506301e1338090600090611f599084906130ec565b90506000611f69612710846130ec565b9050600081611f7884886130ec565b611f829190613103565b9050611f8e81876130c6565b955050505050505b670de0b6b3a7640000611fa983836130d9565b611fb390866130ec565b6112f89190613103565b600881015460009060ff168015611fd8575081600401544210155b8015611ff4575060058201541580611ff4575081600501544211155b80156111fa5750600d54600c54836006015461201091906130c6565b61201a91906130d9565b42101592915050565b600081815260066020526040902061203a81611fbd565b612042575050565b6000828152600760205260408120805461205b90612e57565b80601f016020809104026020016040519081016040528092919081815260200182805461208790612e57565b80156120d45780601f106120a9576101008083540402835291602001916120d4565b820191906000526020600020905b8154815290600101906020018083116120b757829003601f168201915b5050505050905060208151106121185760208101517fc910afae5a97b943f4e955224bddd8cd39793b72c271073e91e8b4d99ee0fc0d81016121165750505050565b505b600182015461212f906001600160a01b03166124db565b8154600183015461214c916001600160a01b0390811691166125ab565b600382015482546001600160a01b039081166000908152600260209081526040808320600188015490941683529290522054101561218957505050565b426006830155600382015482546001600160a01b0390811660009081526002602090815260408083206001880154909416835292905290812080549091906121d29084906130d9565b909155505060028201546001600160a01b0390811660009081526003602090815260408083206001870154909416835292905220541561225c5760038201546002808401546001600160a01b039081166000908152602092835260408082206001880154909316825291909252812080549091906122519084906130c6565b909155506123179050565b60018201546002830154600384015460405163a9059cbb60e01b81526001600160a01b039283166004820152602481019190915291169063a9059cbb906044016020604051808303816000875af11580156122bb573d6000803e3d6000fd5b505050506040513d601f19601f820116820180604052508101906122df91906130a9565b50600382015460018301546001600160a01b0316600090815260056020526040812080549091906123119084906130d9565b90915550505b60038201546040805191825242602083015284917f0dcff691f0b07d64e21612cd5009ae109a7d58655d4a8b29c4607421b1593ff69101611661565b604080517f02b33d7f3c253ee46f879dd431f2035238e54ecb5c043eea5c931283680c203a6020808301919091526001600160a01b03998a1682840152978916606082015295909716608086015260a085019390935260c084019190915260e083015261010080830191909152835180830390910181526101208201845280519083012061190160f01b6101408301527f00000000000000000000000000000000000000000000000000000000000000006101428301526101628083019190915283518083039091018152610182909101909252815191012090565b600061247c83838080601f01602080910402602001604051908101604052809392919081815260200183838082843760009201919091525061247692508891506127f69050565b90612829565b949350505050565b6000546001600160a01b031633146112125760405163118cdaa760e01b8152336004820152602401610725565b6002600154036124d457604051633ee5aeb560e01b815260040160405180910390fd5b6002600155565b6001600160a01b038116600090815260046020526040902060028101541580612508575080600101544211155b15612511575050565b600081600101544261252391906130d9565b8254909150158015906125365750600081115b156125a05781546301e13380906000906125519084906130ec565b90506000612561612710846130ec565b905060008183876002015461257691906130ec565b6125809190613103565b90508086600201600082825461259691906130c6565b9091555050505050505b504260019091015550565b6001600160a01b03808216600081815260046020908152604080832094871683526002825280832093835292905220548015806125ea57506002820154155b156125f55750505050565b6001600160a01b03808516600090815260036020908152604080832093871683529290529081205490819003612657575050600201546001600160a01b0392831660009081526003602090815260408083209490951682529290925291902055565b80836002015411612669575050505050565b6000670de0b6b3a764000082856002015461268491906130d9565b61268e90856130ec565b6126989190613103565b90508015612746576002808501546001600160a01b038089166000818152600360209081526040808320948c168084529482528083209590955591815293815282842091845252812080548392906126f19084906130c6565b92505081905550846001600160a01b0316866001600160a01b03167ff3055bc8d92d9c8d2f12b45d112dd345cd2cfd17292b8d65c5642ac6f912dfd78360405161273d91815260200190565b60405180910390a35b505050505050565b604080516001808252818301909252606091600091906020808301908036833701905050905060008160008151811061278957612789613006565b6001600160a01b0390921660209283029190910190910152919050565b600080546001600160a01b038381166001600160a01b0319831681178455604051919092169283917f8be0079c531659141344cd1fd0a4f28419497f9722a3daafe3b4186f6b6457e09190a35050565b7f19457468657265756d205369676e6564204d6573736167653a0a3332000000006000908152601c91909152603c902090565b6000806000806128398686612853565b92509250925061284982826128a0565b5090949350505050565b6000806000835160410361288d5760208401516040850151606086015160001a61287f88828585612959565b955095509550505050612899565b50508151600091506002905b9250925092565b60008260038111156128b4576128b4613232565b036128bd575050565b60018260038111156128d1576128d1613232565b036128ef5760405163f645eedf60e01b815260040160405180910390fd5b600282600381111561290357612903613232565b036129245760405163fce698f760e01b815260048101829052602401610725565b600382600381111561293857612938613232565b03610f57576040516335e2f38360e21b815260048101829052602401610725565b600080807f7fffffffffffffffffffffffffffffff5d576e7357a4501ddfe92f46681b20a08411156129945750600091506003905082612a1e565b604080516000808252602082018084528a905260ff891692820192909252606081018790526080810186905260019060a0016020604051602081039080840390855afa1580156129e8573d6000803e3d6000fd5b5050604051601f1901519150506001600160a01b038116612a1457506000925060019150829050612a1e565b9250600091508190505b9450945094915050565b80356001600160a01b038116811461182257600080fd5b600060208284031215612a5157600080fd5b612a5a82612a28565b9392505050565b60008083601f840112612a7357600080fd5b50813567ffffffffffffffff811115612a8b57600080fd5b602083019150836020828501011115612aa357600080fd5b9250929050565b600080600060408486031215612abf57600080fd5b83359250602084013567ffffffffffffffff811115612add57600080fd5b612ae986828701612a61565b9497909650939450505050565b60008060208385031215612b0957600080fd5b823567ffffffffffffffff811115612b2057600080fd5b8301601f81018513612b3157600080fd5b803567ffffffffffffffff811115612b4857600080fd5b8560208260051b8401011115612b5d57600080fd5b6020919091019590945092505050565b600080600080600080600080600060e08a8c031215612b8b57600080fd5b612b948a612a28565b9850612ba260208b01612a28565b975060408a0135965060608a0135955060808a0135945060a08a013567ffffffffffffffff811115612bd357600080fd5b612bdf8c828d01612a61565b90955093505060c08a013567ffffffffffffffff811115612bff57600080fd5b612c0b8c828d01612a61565b915080935050809150509295985092959850929598565b60008060408385031215612c3557600080fd5b50508035926020909101359150565b60008060408385031215612c5757600080fd5b612c6083612a28565b9150612c6e60208401612a28565b90509250929050565b60008060408385031215612c8a57600080fd5b612c9383612a28565b946020939093013593505050565b602080825282518282018190526000918401906040840190835b81811015612cd9578351835260209384019390920191600101612cbb565b509095945050505050565b600060208284031215612cf657600080fd5b5035919050565b801515811461135857600080fd5b60008060408385031215612d1e57600080fd5b612d2783612a28565b91506020830135612d3781612cfd565b809150509250929050565b81516001600160a01b0390811682526020808401518216908301526040808401519182169083015261012082019050606083015160608301526080830151608083015260a083015160a083015260c083015160c083015260e083015160e0830152610100830151612db861010084018215159052565b5092915050565b600080600080600080600060c0888a031215612dda57600080fd5b612de388612a28565b9650612df160208901612a28565b955060408801359450606088013593506080880135925060a088013567ffffffffffffffff811115612e2257600080fd5b612e2e8a828b01612a61565b989b979a50959850939692959293505050565b634e487b7160e01b600052604160045260246000fd5b600181811c90821680612e6b57607f821691505b602082108103612e8b57634e487b7160e01b600052602260045260246000fd5b50919050565b601f821115612edb57806000526020600020601f840160051c81016020851015612eb85750805b601f840160051c820191505b81811015612ed85760008155600101612ec4565b50505b505050565b67ffffffffffffffff831115612ef857612ef8612e41565b612f0c83612f068354612e57565b83612e91565b6000601f841160018114612f405760008515612f285750838201355b600019600387901b1c1916600186901b178355612ed8565b600083815260209020601f19861690835b82811015612f715786850135825560209485019460019092019101612f51565b5086821015612f8e5760001960f88860031b161c19848701351681555b505060018560011b0183555050505050565b60208152816020820152818360408301376000818301604090810191909152601f909201601f19160101919050565b60208082526019908201527f4e6f7420616e20617574686f72697a65642072656c6179657200000000000000604082015260600190565b634e487b7160e01b600052603260045260246000fd5b634e487b7160e01b600052601160045260246000fd5b6000600182016130445761304461301c565b5060010190565b6020808252600d908201526c24b73b30b634b2103a37b5b2b760991b604082015260600190565b60208082526017908201527f416d6f756e74206d75737420626520706f736974697665000000000000000000604082015260600190565b6000602082840312156130bb57600080fd5b8151612a5a81612cfd565b808201808211156111fa576111fa61301c565b818103818111156111fa576111fa61301c565b80820281158282048414176111fa576111fa61301c565b60008261312057634e487b7160e01b600052601260045260246000fd5b500490565b815167ffffffffffffffff81111561313f5761313f612e41565b6131538161314d8454612e57565b84612e91565b6020601f821160018114613187576000831561316f5750848201515b600019600385901b1c1916600184901b178455612ed8565b600084815260208120601f198516915b828110156131b75787850151825560209485019460019092019101613197565b50848210156131d55786840151600019600387901b60f8161c191681555b50505050600190811b01905550565b602081526000825180602084015260005b8181101561321257602081860181015160408684010152016131f5565b506000604082850101526040601f19601f83011684010191505092915050565b634e487b7160e01b600052602160045260246000fdfe9cbe785715f800329031f3b381a18aaa611efce8d201c68e4344e1174408756ba264697066735822122030e3c4da12ceac3e2ebcab40bf603d4e21d795efd917932803d2454c489abc0564736f6c634300081a0033",
  "devdoc": {
    "details": "A vault that automates daily savings transfers using relayers and generates yield on deposits",
    "errors": {
      "ECDSAInvalidSignature()": [
        {
          "details": "The signature derives the `address(0)`."
        }
      ],
      "ECDSAInvalidSignatureLength(uint256)": [
        {
          "details": "The signature has an invalid length."
        }
      ],
      "ECDSAInvalidSignatureS(bytes32)": [
        {
          "details": "The signature has an S value that is in the upper half order."
        }
      ],
      "OwnableInvalidOwner(address)": [
        {
          "details": "The owner is not a valid owner account. (eg. `address(0)`)"
        }
      ],
      "OwnableUnauthorizedAccount(address)": [
        {
          "details": "The caller account is not authorized to perform an operation."
        }
      ],
      "ReentrancyGuardReentrantCall()": [
        {
          "details": "Unauthorized reentrant call."
        }
      ]
    },
    "kind": "dev",
    "methods": {
      "authorizeHelper(address,bool)": {
        "details": "Authorize someone to help manage your plans",
        "params": {
          "helper": "Address of the helper",
          "isAuthorized": "Whether to authorize or remove authorization"
        }
      },
      "cancelPlan(bytes32)": {
        "details": "Cancel a savings plan",
        "params": {
          "planId": "ID of the plan to cancel"
        }
      },
      "claimYield(address)": {
        "details": "Claim accumulated yield",
        "params": {
          "tokenAddress": "Token to claim yield for"
        }
      },
      "constructor": {
        "details": "Sets up the contract with security parameters"
      },
      "createPlan(address,address,uint256,uint256,uint256,bytes)": {
        "details": "Create a savings plan directly (no signature needed)",
        "params": {
          "dailyAmount": "How much to save each day",
          "endDate": "When to stop saving (0 = never)",
          "extraData": "Any additional data for this plan",
          "recipientAddress": "Who receives the savings",
          "startDate": "When to start saving",
          "tokenAddress": "The token you want to save"
        },
        "returns": {
          "planId": "The ID of your new savings plan"
        }
      },
      "createPlanWithSignature(address,address,uint256,uint256,uint256,bytes,bytes)": {
        "details": "Create a savings plan with your signature",
        "params": {
          "dailyAmount": "How much to save each day",
          "endDate": "When to stop saving (0 = never)",
          "extraData": "Any additional data for this plan",
          "recipientAddress": "Who receives the savings",
          "signature": "Your signature confirming this plan",
          "startDate": "When to start saving",
          "tokenAddress": "The token you want to save"
        },
        "returns": {
          "planId": "The ID of the created plan"
        }
      },
      "deposit(address,uint256)": {
        "details": "Deposit tokens into the vault to earn yield",
        "params": {
          "amount": "How much to deposit",
          "tokenAddress": "The token to deposit"
        }
      },
      "executePlan(bytes32)": {
        "details": "Execute a specific plan (relayer or owner only)",
        "params": {
          "planId": "Plan ID to execute"
        },
        "returns": {
          "success": "Whether execution was successful"
        }
      },
      "executePlans(bytes32[])": {
        "details": "Execute multiple plans at once (relayer only)",
        "params": {
          "planIds": "Array of plan IDs to execute"
        },
        "returns": {
          "executedCount": "Number of successfully executed plans"
        }
      },
      "getExecutablePlans(address,uint256)": {
        "details": "Get executable plans for a token (relayer only)",
        "params": {
          "maxResults": "Maximum number of results to return",
          "tokenAddress": "Token address to filter by"
        },
        "returns": {
          "planIds": "Array of executable plan IDs"
        }
      },
      "getPendingYield(address,address)": {
        "details": "Calculate pending yield for a user",
        "params": {
          "tokenAddress": "Token address",
          "user": "User address"
        },
        "returns": {
          "_0": "pendingYield Amount of pending yield"
        }
      },
      "getPlan(bytes32)": {
        "details": "Get details for a specific plan",
        "params": {
          "planId": "ID of the plan"
        },
        "returns": {
          "_0": "plan Plan details"
        }
      },
      "getSaverPlans(address)": {
        "details": "Get all plans for a specific saver",
        "params": {
          "saver": "Saver's address"
        },
        "returns": {
          "_0": "planIds Array of plan IDs"
        }
      },
      "getTokenYieldRate(address)": {
        "details": "Get current yield rate for a token",
        "params": {
          "tokenAddress": "Token address"
        },
        "returns": {
          "_0": "rate Annual yield rate in basis points"
        }
      },
      "getUserTotalBalance(address,address)": {
        "details": "Get user's token balance including pending yield",
        "params": {
          "tokenAddress": "Token address",
          "user": "User address"
        },
        "returns": {
          "_0": "balance User's total balance including pending yield"
        }
      },
      "owner()": {
        "details": "Returns the address of the current owner."
      },
      "renounceOwnership()": {
        "details": "Leaves the contract without owner. It will not be possible to call `onlyOwner` functions. Can only be called by the current owner. NOTE: Renouncing ownership will leave the contract without an owner, thereby disabling any functionality that is only available to the owner."
      },
      "setExecutionParameters(uint256,uint256)": {
        "details": "Update execution parameters (owner only)",
        "params": {
          "newDailyInterval": "New interval between executions",
          "newExecutionWindow": "New execution window after interval"
        }
      },
      "setRelayer(address,bool)": {
        "details": "Add or remove a relayer",
        "params": {
          "isAuthorized": "Whether to authorize or remove",
          "relayer": "Address of the relayer"
        }
      },
      "setTokenYieldRate(address,uint256)": {
        "details": "Set yield rate for a token (owner only)",
        "params": {
          "tokenAddress": "The token to configure",
          "yearlyYieldRate": "Annual yield rate in basis points (e.g., 500 = 5%)"
        }
      },
      "transferOwnership(address)": {
        "details": "Transfers ownership of the contract to a new account (`newOwner`). Can only be called by the current owner."
      },
      "updatePlanData(bytes32,bytes)": {
        "details": "Update extra data for a savings plan",
        "params": {
          "data": "New data to store",
          "planId": "ID of the plan to update"
        }
      },
      "withdraw(address,uint256)": {
        "details": "Withdraw tokens from the vault",
        "params": {
          "amount": "How much to withdraw",
          "tokenAddress": "The token to withdraw"
        }
      }
    },
    "title": "YieldSavingsVaultWithRelayer",
    "version": 1
  },
  "userdoc": {
    "kind": "user",
    "methods": {},
    "version": 1
  },
  "storageLayout": {
    "storage": [
      {
        "astId": 8,
        "contract": "contracts/DailySavingsManager.sol:YieldSavingsVaultWithRelayer",
        "label": "_owner",
        "offset": 0,
        "slot": "0",
        "type": "t_address"
      },
      {
        "astId": 318,
        "contract": "contracts/DailySavingsManager.sol:YieldSavingsVaultWithRelayer",
        "label": "_status",
        "offset": 0,
        "slot": "1",
        "type": "t_uint256"
      },
      {
        "astId": 5563,
        "contract": "contracts/DailySavingsManager.sol:YieldSavingsVaultWithRelayer",
        "label": "userTokenBalances",
        "offset": 0,
        "slot": "2",
        "type": "t_mapping(t_address,t_mapping(t_address,t_uint256))"
      },
      {
        "astId": 5569,
        "contract": "contracts/DailySavingsManager.sol:YieldSavingsVaultWithRelayer",
        "label": "userYieldIndexes",
        "offset": 0,
        "slot": "3",
        "type": "t_mapping(t_address,t_mapping(t_address,t_uint256))"
      },
      {
        "astId": 5574,
        "contract": "contracts/DailySavingsManager.sol:YieldSavingsVaultWithRelayer",
        "label": "tokenYieldConfigs",
        "offset": 0,
        "slot": "4",
        "type": "t_mapping(t_address,t_struct(TokenYieldConfig)5557_storage)"
      },
      {
        "astId": 5578,
        "contract": "contracts/DailySavingsManager.sol:YieldSavingsVaultWithRelayer",
        "label": "totalTokenDeposits",
        "offset": 0,
        "slot": "5",
        "type": "t_mapping(t_address,t_uint256)"
      },
      {
        "astId": 5583,
        "contract": "contracts/DailySavingsManager.sol:YieldSavingsVaultWithRelayer",
        "label": "savingsPlans",
        "offset": 0,
        "slot": "6",
        "type": "t_mapping(t_bytes32,t_struct(SavingsPlan)5550_storage)"
      },
      {
        "astId": 5587,
        "contract": "contracts/DailySavingsManager.sol:YieldSavingsVaultWithRelayer",
        "label": "_planData",
        "offset": 0,
        "slot": "7",
        "type": "t_mapping(t_bytes32,t_bytes_storage)"
      },
      {
        "astId": 5592,
        "contract": "contracts/DailySavingsManager.sol:YieldSavingsVaultWithRelayer",
        "label": "userPlans",
        "offset": 0,
        "slot": "8",
        "type": "t_mapping(t_address,t_array(t_bytes32)dyn_storage)"
      },
      {
        "astId": 5598,
        "contract": "contracts/DailySavingsManager.sol:YieldSavingsVaultWithRelayer",
        "label": "authorizedHelpers",
        "offset": 0,
        "slot": "9",
        "type": "t_mapping(t_address,t_mapping(t_address,t_bool))"
      },
      {
        "astId": 5602,
        "contract": "contracts/DailySavingsManager.sol:YieldSavingsVaultWithRelayer",
        "label": "authorizedRelayers",
        "offset": 0,
        "slot": "10",
        "type": "t_mapping(t_address,t_bool)"
      },
      {
        "astId": 5606,
        "contract": "contracts/DailySavingsManager.sol:YieldSavingsVaultWithRelayer",
        "label": "userPlanCount",
        "offset": 0,
        "slot": "11",
        "type": "t_mapping(t_address,t_uint256)"
      },
      {
        "astId": 5621,
        "contract": "contracts/DailySavingsManager.sol:YieldSavingsVaultWithRelayer",
        "label": "dailyTransferInterval",
        "offset": 0,
        "slot": "12",
        "type": "t_uint256"
      },
      {
        "astId": 5624,
        "contract": "contracts/DailySavingsManager.sol:YieldSavingsVaultWithRelayer",
        "label": "executionWindow",
        "offset": 0,
        "slot": "13",
        "type": "t_uint256"
      }
    ],
    "types": {
      "t_address": {
        "encoding": "inplace",
        "label": "address",
        "numberOfBytes": "20"
      },
      "t_array(t_bytes32)dyn_storage": {
        "base": "t_bytes32",
        "encoding": "dynamic_array",
        "label": "bytes32[]",
        "numberOfBytes": "32"
      },
      "t_bool": {
        "encoding": "inplace",
        "label": "bool",
        "numberOfBytes": "1"
      },
      "t_bytes32": {
        "encoding": "inplace",
        "label": "bytes32",
        "numberOfBytes": "32"
      },
      "t_bytes_storage": {
        "encoding": "bytes",
        "label": "bytes",
        "numberOfBytes": "32"
      },
      "t_mapping(t_address,t_array(t_bytes32)dyn_storage)": {
        "encoding": "mapping",
        "key": "t_address",
        "label": "mapping(address => bytes32[])",
        "numberOfBytes": "32",
        "value": "t_array(t_bytes32)dyn_storage"
      },
      "t_mapping(t_address,t_bool)": {
        "encoding": "mapping",
        "key": "t_address",
        "label": "mapping(address => bool)",
        "numberOfBytes": "32",
        "value": "t_bool"
      },
      "t_mapping(t_address,t_mapping(t_address,t_bool))": {
        "encoding": "mapping",
        "key": "t_address",
        "label": "mapping(address => mapping(address => bool))",
        "numberOfBytes": "32",
        "value": "t_mapping(t_address,t_bool)"
      },
      "t_mapping(t_address,t_mapping(t_address,t_uint256))": {
        "encoding": "mapping",
        "key": "t_address",
        "label": "mapping(address => mapping(address => uint256))",
        "numberOfBytes": "32",
        "value": "t_mapping(t_address,t_uint256)"
      },
      "t_mapping(t_address,t_struct(TokenYieldConfig)5557_storage)": {
        "encoding": "mapping",
        "key": "t_address",
        "label": "mapping(address => struct YieldSavingsVaultWithRelayer.TokenYieldConfig)",
        "numberOfBytes": "32",
        "value": "t_struct(TokenYieldConfig)5557_storage"
      },
      "t_mapping(t_address,t_uint256)": {
        "encoding": "mapping",
        "key": "t_address",
        "label": "mapping(address => uint256)",
        "numberOfBytes": "32",
        "value": "t_uint256"
      },
      "t_mapping(t_bytes32,t_bytes_storage)": {
        "encoding": "mapping",
        "key": "t_bytes32",
        "label": "mapping(bytes32 => bytes)",
        "numberOfBytes": "32",
        "value": "t_bytes_storage"
      },
      "t_mapping(t_bytes32,t_struct(SavingsPlan)5550_storage)": {
        "encoding": "mapping",
        "key": "t_bytes32",
        "label": "mapping(bytes32 => struct YieldSavingsVaultWithRelayer.SavingsPlan)",
        "numberOfBytes": "32",
        "value": "t_struct(SavingsPlan)5550_storage"
      },
      "t_struct(SavingsPlan)5550_storage": {
        "encoding": "inplace",
        "label": "struct YieldSavingsVaultWithRelayer.SavingsPlan",
        "members": [
          {
            "astId": 5533,
            "contract": "contracts/DailySavingsManager.sol:YieldSavingsVaultWithRelayer",
            "label": "saver",
            "offset": 0,
            "slot": "0",
            "type": "t_address"
          },
          {
            "astId": 5535,
            "contract": "contracts/DailySavingsManager.sol:YieldSavingsVaultWithRelayer",
            "label": "token",
            "offset": 0,
            "slot": "1",
            "type": "t_address"
          },
          {
            "astId": 5537,
            "contract": "contracts/DailySavingsManager.sol:YieldSavingsVaultWithRelayer",
            "label": "recipient",
            "offset": 0,
            "slot": "2",
            "type": "t_address"
          },
          {
            "astId": 5539,
            "contract": "contracts/DailySavingsManager.sol:YieldSavingsVaultWithRelayer",
            "label": "dailyAmount",
            "offset": 0,
            "slot": "3",
            "type": "t_uint256"
          },
          {
            "astId": 5541,
            "contract": "contracts/DailySavingsManager.sol:YieldSavingsVaultWithRelayer",
            "label": "startDate",
            "offset": 0,
            "slot": "4",
            "type": "t_uint256"
          },
          {
            "astId": 5543,
            "contract": "contracts/DailySavingsManager.sol:YieldSavingsVaultWithRelayer",
            "label": "endDate",
            "offset": 0,
            "slot": "5",
            "type": "t_uint256"
          },
          {
            "astId": 5545,
            "contract": "contracts/DailySavingsManager.sol:YieldSavingsVaultWithRelayer",
            "label": "lastTransferDate",
            "offset": 0,
            "slot": "6",
            "type": "t_uint256"
          },
          {
            "astId": 5547,
            "contract": "contracts/DailySavingsManager.sol:YieldSavingsVaultWithRelayer",
            "label": "planNumber",
            "offset": 0,
            "slot": "7",
            "type": "t_uint256"
          },
          {
            "astId": 5549,
            "contract": "contracts/DailySavingsManager.sol:YieldSavingsVaultWithRelayer",
            "label": "isActive",
            "offset": 0,
            "slot": "8",
            "type": "t_bool"
          }
        ],
        "numberOfBytes": "288"
      },
      "t_struct(TokenYieldConfig)5557_storage": {
        "encoding": "inplace",
        "label": "struct YieldSavingsVaultWithRelayer.TokenYieldConfig",
        "members": [
          {
            "astId": 5552,
            "contract": "contracts/DailySavingsManager.sol:YieldSavingsVaultWithRelayer",
            "label": "yearlyYieldRate",
            "offset": 0,
            "slot": "0",
            "type": "t_uint256"
          },
          {
            "astId": 5554,
            "contract": "contracts/DailySavingsManager.sol:YieldSavingsVaultWithRelayer",
            "label": "lastUpdateTime",
            "offset": 0,
            "slot": "1",
            "type": "t_uint256"
          },
          {
            "astId": 5556,
            "contract": "contracts/DailySavingsManager.sol:YieldSavingsVaultWithRelayer",
            "label": "yieldIndex",
            "offset": 0,
            "slot": "2",
            "type": "t_uint256"
          }
        ],
        "numberOfBytes": "96"
      },
      "t_uint256": {
        "encoding": "inplace",
        "label": "uint256",
        "numberOfBytes": "32"
      }
    }
  }
}